{
  "_format": "hh-sol-artifact-1",
  "contractName": "MyTokens",
  "sourceName": "hardhat/contracts/MyTokens.sol",
  "abi": [
    {
      "inputs": [
        {
          "internalType": "string[]",
          "name": "_tokenNames",
          "type": "string[]"
        },
        {
          "internalType": "uint256[]",
          "name": "_tokenSupplies",
          "type": "uint256[]"
        },
        {
          "internalType": "uint256[]",
          "name": "_tokenPriceEquivalence",
          "type": "uint256[]"
        }
      ],
      "stateMutability": "nonpayable",
      "type": "constructor"
    },
    {
      "anonymous": false,
      "inputs": [
        {
          "indexed": true,
          "internalType": "address",
          "name": "account",
          "type": "address"
        },
        {
          "indexed": true,
          "internalType": "address",
          "name": "operator",
          "type": "address"
        },
        {
          "indexed": false,
          "internalType": "bool",
          "name": "approved",
          "type": "bool"
        }
      ],
      "name": "ApprovalForAll",
      "type": "event"
    },
    {
      "anonymous": false,
      "inputs": [
        {
          "indexed": true,
          "internalType": "address",
          "name": "operator",
          "type": "address"
        },
        {
          "indexed": true,
          "internalType": "address",
          "name": "from",
          "type": "address"
        },
        {
          "indexed": true,
          "internalType": "address",
          "name": "to",
          "type": "address"
        },
        {
          "indexed": false,
          "internalType": "uint256[]",
          "name": "ids",
          "type": "uint256[]"
        },
        {
          "indexed": false,
          "internalType": "uint256[]",
          "name": "values",
          "type": "uint256[]"
        }
      ],
      "name": "TransferBatch",
      "type": "event"
    },
    {
      "anonymous": false,
      "inputs": [
        {
          "indexed": true,
          "internalType": "address",
          "name": "operator",
          "type": "address"
        },
        {
          "indexed": true,
          "internalType": "address",
          "name": "from",
          "type": "address"
        },
        {
          "indexed": true,
          "internalType": "address",
          "name": "to",
          "type": "address"
        },
        {
          "indexed": false,
          "internalType": "uint256",
          "name": "id",
          "type": "uint256"
        },
        {
          "indexed": false,
          "internalType": "uint256",
          "name": "value",
          "type": "uint256"
        }
      ],
      "name": "TransferSingle",
      "type": "event"
    },
    {
      "anonymous": false,
      "inputs": [
        {
          "indexed": false,
          "internalType": "string",
          "name": "value",
          "type": "string"
        },
        {
          "indexed": true,
          "internalType": "uint256",
          "name": "id",
          "type": "uint256"
        }
      ],
      "name": "URI",
      "type": "event"
    },
    {
      "inputs": [
        {
          "internalType": "address",
          "name": "account",
          "type": "address"
        },
        {
          "internalType": "uint256",
          "name": "id",
          "type": "uint256"
        }
      ],
      "name": "balanceOf",
      "outputs": [
        {
          "internalType": "uint256",
          "name": "",
          "type": "uint256"
        }
      ],
      "stateMutability": "view",
      "type": "function"
    },
    {
      "inputs": [
        {
          "internalType": "address[]",
          "name": "accounts",
          "type": "address[]"
        },
        {
          "internalType": "uint256[]",
          "name": "ids",
          "type": "uint256[]"
        }
      ],
      "name": "balanceOfBatch",
      "outputs": [
        {
          "internalType": "uint256[]",
          "name": "",
          "type": "uint256[]"
        }
      ],
      "stateMutability": "view",
      "type": "function"
    },
    {
      "inputs": [],
      "name": "getTokens",
      "outputs": [
        {
          "components": [
            {
              "internalType": "string",
              "name": "name",
              "type": "string"
            },
            {
              "internalType": "uint256",
              "name": "supply",
              "type": "uint256"
            }
          ],
          "internalType": "struct MyTokens.Token[]",
          "name": "",
          "type": "tuple[]"
        }
      ],
      "stateMutability": "view",
      "type": "function"
    },
    {
      "inputs": [
        {
          "internalType": "address",
          "name": "account",
          "type": "address"
        },
        {
          "internalType": "address",
          "name": "operator",
          "type": "address"
        }
      ],
      "name": "isApprovedForAll",
      "outputs": [
        {
          "internalType": "bool",
          "name": "",
          "type": "bool"
        }
      ],
      "stateMutability": "view",
      "type": "function"
    },
    {
      "inputs": [
        {
          "internalType": "uint256",
          "name": "id",
          "type": "uint256"
        },
        {
          "internalType": "uint256",
          "name": "amount",
          "type": "uint256"
        }
      ],
      "name": "requiredWeiForToken",
      "outputs": [
        {
          "internalType": "uint256",
          "name": "",
          "type": "uint256"
        }
      ],
      "stateMutability": "view",
      "type": "function"
    },
    {
      "inputs": [
        {
          "internalType": "address",
          "name": "from",
          "type": "address"
        },
        {
          "internalType": "address",
          "name": "to",
          "type": "address"
        },
        {
          "internalType": "uint256[]",
          "name": "ids",
          "type": "uint256[]"
        },
        {
          "internalType": "uint256[]",
          "name": "amounts",
          "type": "uint256[]"
        },
        {
          "internalType": "bytes",
          "name": "data",
          "type": "bytes"
        }
      ],
      "name": "safeBatchTransferFrom",
      "outputs": [],
      "stateMutability": "nonpayable",
      "type": "function"
    },
    {
      "inputs": [
        {
          "internalType": "address",
          "name": "from",
          "type": "address"
        },
        {
          "internalType": "address",
          "name": "to",
          "type": "address"
        },
        {
          "internalType": "uint256",
          "name": "id",
          "type": "uint256"
        },
        {
          "internalType": "uint256",
          "name": "amount",
          "type": "uint256"
        },
        {
          "internalType": "bytes",
          "name": "data",
          "type": "bytes"
        }
      ],
      "name": "safeTransferFrom",
      "outputs": [],
      "stateMutability": "nonpayable",
      "type": "function"
    },
    {
      "inputs": [
        {
          "internalType": "address",
          "name": "operator",
          "type": "address"
        },
        {
          "internalType": "bool",
          "name": "approved",
          "type": "bool"
        }
      ],
      "name": "setApprovalForAll",
      "outputs": [],
      "stateMutability": "nonpayable",
      "type": "function"
    },
    {
      "inputs": [
        {
          "internalType": "bytes4",
          "name": "interfaceId",
          "type": "bytes4"
        }
      ],
      "name": "supportsInterface",
      "outputs": [
        {
          "internalType": "bool",
          "name": "",
          "type": "bool"
        }
      ],
      "stateMutability": "view",
      "type": "function"
    },
    {
      "inputs": [
        {
          "internalType": "uint256",
          "name": "",
          "type": "uint256"
        }
      ],
      "name": "tokenEquivalenceOfSingleEther",
      "outputs": [
        {
          "internalType": "uint256",
          "name": "",
          "type": "uint256"
        }
      ],
      "stateMutability": "view",
      "type": "function"
    },
    {
      "inputs": [
        {
          "internalType": "uint256",
          "name": "",
          "type": "uint256"
        }
      ],
      "name": "tokens",
      "outputs": [
        {
          "internalType": "string",
          "name": "name",
          "type": "string"
        },
        {
          "internalType": "uint256",
          "name": "supply",
          "type": "uint256"
        }
      ],
      "stateMutability": "view",
      "type": "function"
    },
    {
      "inputs": [
        {
          "internalType": "uint256",
          "name": "",
          "type": "uint256"
        }
      ],
      "name": "uri",
      "outputs": [
        {
          "internalType": "string",
          "name": "",
          "type": "string"
        }
      ],
      "stateMutability": "view",
      "type": "function"
    }
  ],
  "bytecode": "0x60806040523480156200001157600080fd5b5060405162003f1038038062003f10833981810160405281019062000037919062000ae7565b60405180606001604052806027815260200162003ee96027913962000062816200020e60201b60201c565b508151835114801562000076575081518151145b620000b8576040517f08c379a0000000000000000000000000000000000000000000000000000000008152600401620000af9062000c4d565b60405180910390fd5b60005b8351811015620002045760036040518060400160405280868481518110620000e857620000e762000c6f565b5b602002602001015181526020018584815181106200010b576200010a62000c6f565b5b6020026020010151815250908060018154018082558091505060019003906000526020600020906002020160009091909190915060008201518160000190805190602001906200015d9291906200068d565b50602082015181600101555050620001aa338285848151811062000186576200018562000c6f565b5b6020026020010151604051806020016040528060008152506200022a60201b60201c565b6004828281518110620001c257620001c162000c6f565b5b6020026020010151908060018154018082558091505060019003906000526020600020016000909190919091505580620001fc9062000ccd565b9050620000bb565b50505050620012bc565b8060029080519060200190620002269291906200068d565b5050565b600073ffffffffffffffffffffffffffffffffffffffff168473ffffffffffffffffffffffffffffffffffffffff1614156200029d576040517f08c379a0000000000000000000000000000000000000000000000000000000008152600401620002949062000d91565b60405180910390fd5b6000620002af620003ef60201b60201c565b9050620002e881600087620002ca88620003f760201b60201c565b620002db88620003f760201b60201c565b876200047860201b60201c565b8260008086815260200190815260200160002060008773ffffffffffffffffffffffffffffffffffffffff1673ffffffffffffffffffffffffffffffffffffffff168152602001908152602001600020600082825462000349919062000db3565b925050819055508473ffffffffffffffffffffffffffffffffffffffff16600073ffffffffffffffffffffffffffffffffffffffff168273ffffffffffffffffffffffffffffffffffffffff167fc3d58168c5ae7397731d063d5bbf3d657854427343f4c083240f7aacaa2d0f628787604051620003c992919062000e21565b60405180910390a4620003e8816000878787876200048060201b60201c565b5050505050565b600033905090565b60606000600167ffffffffffffffff81111562000419576200041862000767565b5b604051908082528060200260200182016040528015620004485781602001602082028036833780820191505090505b509050828160008151811062000463576200046262000c6f565b5b60200260200101818152505080915050919050565b505050505050565b620004ac8473ffffffffffffffffffffffffffffffffffffffff166200067a60201b62000a421760201c565b1562000672578373ffffffffffffffffffffffffffffffffffffffff1663f23a6e6187878686866040518663ffffffff1660e01b8152600401620004f595949392919062000ef0565b6020604051808303816000875af19250505080156200053457506040513d601f19601f8201168201806040525081019062000531919062000fb1565b60015b620005e6576200054362000ff0565b806308c379a01415620005a757506200055b62001015565b80620005685750620005a9565b806040517f08c379a00000000000000000000000000000000000000000000000000000000081526004016200059e919062001103565b60405180910390fd5b505b6040517f08c379a0000000000000000000000000000000000000000000000000000000008152600401620005dd906200119d565b60405180910390fd5b63f23a6e6160e01b7bffffffffffffffffffffffffffffffffffffffffffffffffffffffff1916817bffffffffffffffffffffffffffffffffffffffffffffffffffffffff19161462000670576040517f08c379a0000000000000000000000000000000000000000000000000000000008152600401620006679062001235565b60405180910390fd5b505b505050505050565b600080823b905060008111915050919050565b8280546200069b9062001286565b90600052602060002090601f016020900481019282620006bf57600085556200070b565b82601f10620006da57805160ff19168380011785556200070b565b828001600101855582156200070b579182015b828111156200070a578251825591602001919060010190620006ed565b5b5090506200071a91906200071e565b5090565b5b80821115620007395760008160009055506001016200071f565b5090565b6000604051905090565b600080fd5b600080fd5b600080fd5b6000601f19601f8301169050919050565b7f4e487b7100000000000000000000000000000000000000000000000000000000600052604160045260246000fd5b620007a18262000756565b810181811067ffffffffffffffff82111715620007c357620007c262000767565b5b80604052505050565b6000620007d86200073d565b9050620007e6828262000796565b919050565b600067ffffffffffffffff82111562000809576200080862000767565b5b602082029050602081019050919050565b600080fd5b600080fd5b600067ffffffffffffffff82111562000842576200084162000767565b5b6200084d8262000756565b9050602081019050919050565b60005b838110156200087a5780820151818401526020810190506200085d565b838111156200088a576000848401525b50505050565b6000620008a7620008a18462000824565b620007cc565b905082815260208101848484011115620008c657620008c56200081f565b5b620008d38482856200085a565b509392505050565b600082601f830112620008f357620008f262000751565b5b81516200090584826020860162000890565b91505092915050565b6000620009256200091f84620007eb565b620007cc565b905080838252602082019050602084028301858111156200094b576200094a6200081a565b5b835b818110156200099957805167ffffffffffffffff81111562000974576200097362000751565b5b808601620009838982620008db565b855260208501945050506020810190506200094d565b5050509392505050565b600082601f830112620009bb57620009ba62000751565b5b8151620009cd8482602086016200090e565b91505092915050565b600067ffffffffffffffff821115620009f457620009f362000767565b5b602082029050602081019050919050565b6000819050919050565b62000a1a8162000a05565b811462000a2657600080fd5b50565b60008151905062000a3a8162000a0f565b92915050565b600062000a5762000a5184620009d6565b620007cc565b9050808382526020820190506020840283018581111562000a7d5762000a7c6200081a565b5b835b8181101562000aaa578062000a95888262000a29565b84526020840193505060208101905062000a7f565b5050509392505050565b600082601f83011262000acc5762000acb62000751565b5b815162000ade84826020860162000a40565b91505092915050565b60008060006060848603121562000b035762000b0262000747565b5b600084015167ffffffffffffffff81111562000b245762000b236200074c565b5b62000b3286828701620009a3565b935050602084015167ffffffffffffffff81111562000b565762000b556200074c565b5b62000b648682870162000ab4565b925050604084015167ffffffffffffffff81111562000b885762000b876200074c565b5b62000b968682870162000ab4565b9150509250925092565b600082825260208201905092915050565b7f596f75206d7573742070726f7669646520657175616c206e756d62657273206f60008201527f66206e616d652c20746f6b656e537570706c69657320616e642065717569766160208201527f6c656e7450726963650000000000000000000000000000000000000000000000604082015250565b600062000c3560498362000ba0565b915062000c428262000bb1565b606082019050919050565b6000602082019050818103600083015262000c688162000c26565b9050919050565b7f4e487b7100000000000000000000000000000000000000000000000000000000600052603260045260246000fd5b7f4e487b7100000000000000000000000000000000000000000000000000000000600052601160045260246000fd5b600062000cda8262000a05565b91507fffffffffffffffffffffffffffffffffffffffffffffffffffffffffffffffff82141562000d105762000d0f62000c9e565b5b600182019050919050565b7f455243313135353a206d696e7420746f20746865207a65726f2061646472657360008201527f7300000000000000000000000000000000000000000000000000000000000000602082015250565b600062000d7960218362000ba0565b915062000d868262000d1b565b604082019050919050565b6000602082019050818103600083015262000dac8162000d6a565b9050919050565b600062000dc08262000a05565b915062000dcd8362000a05565b9250827fffffffffffffffffffffffffffffffffffffffffffffffffffffffffffffffff0382111562000e055762000e0462000c9e565b5b828201905092915050565b62000e1b8162000a05565b82525050565b600060408201905062000e38600083018562000e10565b62000e47602083018462000e10565b9392505050565b600073ffffffffffffffffffffffffffffffffffffffff82169050919050565b600062000e7b8262000e4e565b9050919050565b62000e8d8162000e6e565b82525050565b600081519050919050565b600082825260208201905092915050565b600062000ebc8262000e93565b62000ec8818562000e9e565b935062000eda8185602086016200085a565b62000ee58162000756565b840191505092915050565b600060a08201905062000f07600083018862000e82565b62000f16602083018762000e82565b62000f25604083018662000e10565b62000f34606083018562000e10565b818103608083015262000f48818462000eaf565b90509695505050505050565b60007fffffffff0000000000000000000000000000000000000000000000000000000082169050919050565b62000f8b8162000f54565b811462000f9757600080fd5b50565b60008151905062000fab8162000f80565b92915050565b60006020828403121562000fca5762000fc962000747565b5b600062000fda8482850162000f9a565b91505092915050565b60008160e01c9050919050565b600060033d1115620010125760046000803e6200100f60005162000fe3565b90505b90565b600060443d10156200102757620010b4565b620010316200073d565b60043d036004823e80513d602482011167ffffffffffffffff821117156200105b575050620010b4565b808201805167ffffffffffffffff8111156200107b5750505050620010b4565b80602083010160043d0385018111156200109a575050505050620010b4565b620010ab8260200185018662000796565b82955050505050505b90565b600081519050919050565b6000620010cf82620010b7565b620010db818562000ba0565b9350620010ed8185602086016200085a565b620010f88162000756565b840191505092915050565b600060208201905081810360008301526200111f8184620010c2565b905092915050565b7f455243313135353a207472616e7366657220746f206e6f6e204552433131353560008201527f526563656976657220696d706c656d656e746572000000000000000000000000602082015250565b60006200118560348362000ba0565b9150620011928262001127565b604082019050919050565b60006020820190508181036000830152620011b88162001176565b9050919050565b7f455243313135353a204552433131353552656365697665722072656a6563746560008201527f6420746f6b656e73000000000000000000000000000000000000000000000000602082015250565b60006200121d60288362000ba0565b91506200122a82620011bf565b604082019050919050565b6000602082019050818103600083015262001250816200120e565b9050919050565b7f4e487b7100000000000000000000000000000000000000000000000000000000600052602260045260246000fd5b600060028204905060018216806200129f57607f821691505b60208210811415620012b657620012b562001257565b5b50919050565b612c1d80620012cc6000396000f3fe608060405234801561001057600080fd5b50600436106100b35760003560e01c80637091e410116100715780637091e410146101c5578063819216e9146101f5578063a22cb46514610225578063aa6ca80814610241578063e985e9c51461025f578063f242432a1461028f576100b3565b8062fdd58e146100b857806301ffc9a7146100e85780630e89341c146101185780632eb2c2d6146101485780634e1273f4146101645780634f64b2be14610194575b600080fd5b6100d260048036038101906100cd919061177c565b6102ab565b6040516100df91906117cb565b60405180910390f35b61010260048036038101906100fd919061183e565b610374565b60405161010f9190611886565b60405180910390f35b610132600480360381019061012d91906118a1565b610456565b60405161013f9190611967565b60405180910390f35b610162600480360381019061015d9190611b86565b6104ea565b005b61017e60048036038101906101799190611d18565b61058b565b60405161018b9190611e4e565b60405180910390f35b6101ae60048036038101906101a991906118a1565b6106a4565b6040516101bc929190611e70565b60405180910390f35b6101df60048036038101906101da91906118a1565b610760565b6040516101ec91906117cb565b60405180910390f35b61020f600480360381019061020a9190611ea0565b610784565b60405161021c91906117cb565b60405180910390f35b61023f600480360381019061023a9190611f0c565b6107fc565b005b610249610812565b6040516102569190612095565b60405180910390f35b610279600480360381019061027491906120b7565b61090d565b6040516102869190611886565b60405180910390f35b6102a960048036038101906102a491906120f7565b6109a1565b005b60008073ffffffffffffffffffffffffffffffffffffffff168373ffffffffffffffffffffffffffffffffffffffff16141561031c576040517f08c379a000000000000000000000000000000000000000000000000000000000815260040161031390612200565b60405180910390fd5b60008083815260200190815260200160002060008473ffffffffffffffffffffffffffffffffffffffff1673ffffffffffffffffffffffffffffffffffffffff16815260200190815260200160002054905092915050565b60007fd9b67a26000000000000000000000000000000000000000000000000000000007bffffffffffffffffffffffffffffffffffffffffffffffffffffffff1916827bffffffffffffffffffffffffffffffffffffffffffffffffffffffff1916148061043f57507f0e89341c000000000000000000000000000000000000000000000000000000007bffffffffffffffffffffffffffffffffffffffffffffffffffffffff1916827bffffffffffffffffffffffffffffffffffffffffffffffffffffffff1916145b8061044f575061044e82610a55565b5b9050919050565b6060600280546104659061224f565b80601f01602080910402602001604051908101604052809291908181526020018280546104919061224f565b80156104de5780601f106104b3576101008083540402835291602001916104de565b820191906000526020600020905b8154815290600101906020018083116104c157829003601f168201915b50505050509050919050565b6104f2610abf565b73ffffffffffffffffffffffffffffffffffffffff168573ffffffffffffffffffffffffffffffffffffffff161480610538575061053785610532610abf565b61090d565b5b610577576040517f08c379a000000000000000000000000000000000000000000000000000000000815260040161056e906122f3565b60405180910390fd5b6105848585858585610ac7565b5050505050565b606081518351146105d1576040517f08c379a00000000000000000000000000000000000000000000000000000000081526004016105c890612385565b60405180910390fd5b6000835167ffffffffffffffff8111156105ee576105ed61198e565b5b60405190808252806020026020018201604052801561061c5781602001602082028036833780820191505090505b50905060005b845181101561069957610669858281518110610641576106406123a5565b5b602002602001015185838151811061065c5761065b6123a5565b5b60200260200101516102ab565b82828151811061067c5761067b6123a5565b5b6020026020010181815250508061069290612403565b9050610622565b508091505092915050565b600381815481106106b457600080fd5b90600052602060002090600202016000915090508060000180546106d79061224f565b80601f01602080910402602001604051908101604052809291908181526020018280546107039061224f565b80156107505780601f1061072557610100808354040283529160200191610750565b820191906000526020600020905b81548152906001019060200180831161073357829003601f168201915b5050505050908060010154905082565b6004818154811061077057600080fd5b906000526020600020016000915090505481565b6000670de0b6b3a76400008261079a919061244c565b91506000600484815481106107b2576107b16123a5565b5b9060005260206000200154905060006107d48285610ddb90919063ffffffff16565b90506107df84610df1565b6107e882610df1565b6107f181610df1565b809250505092915050565b61080e610807610abf565b8383610e8a565b5050565b60606003805480602002602001604051908101604052809291908181526020016000905b8282101561090457838290600052602060002090600202016040518060400160405290816000820180546108699061224f565b80601f01602080910402602001604051908101604052809291908181526020018280546108959061224f565b80156108e25780601f106108b7576101008083540402835291602001916108e2565b820191906000526020600020905b8154815290600101906020018083116108c557829003601f168201915b5050505050815260200160018201548152505081526020019060010190610836565b50505050905090565b6000600160008473ffffffffffffffffffffffffffffffffffffffff1673ffffffffffffffffffffffffffffffffffffffff16815260200190815260200160002060008373ffffffffffffffffffffffffffffffffffffffff1673ffffffffffffffffffffffffffffffffffffffff16815260200190815260200160002060009054906101000a900460ff16905092915050565b6109a9610abf565b73ffffffffffffffffffffffffffffffffffffffff168573ffffffffffffffffffffffffffffffffffffffff1614806109ef57506109ee856109e9610abf565b61090d565b5b610a2e576040517f08c379a0000000000000000000000000000000000000000000000000000000008152600401610a2590612518565b60405180910390fd5b610a3b8585858585610ff7565b5050505050565b600080823b905060008111915050919050565b60007f01ffc9a7000000000000000000000000000000000000000000000000000000007bffffffffffffffffffffffffffffffffffffffffffffffffffffffff1916827bffffffffffffffffffffffffffffffffffffffffffffffffffffffff1916149050919050565b600033905090565b8151835114610b0b576040517f08c379a0000000000000000000000000000000000000000000000000000000008152600401610b02906125aa565b60405180910390fd5b600073ffffffffffffffffffffffffffffffffffffffff168473ffffffffffffffffffffffffffffffffffffffff161415610b7b576040517f08c379a0000000000000000000000000000000000000000000000000000000008152600401610b729061263c565b60405180910390fd5b6000610b85610abf565b9050610b95818787878787611279565b60005b8451811015610d46576000858281518110610bb657610bb56123a5565b5b602002602001015190506000858381518110610bd557610bd46123a5565b5b60200260200101519050600080600084815260200190815260200160002060008b73ffffffffffffffffffffffffffffffffffffffff1673ffffffffffffffffffffffffffffffffffffffff16815260200190815260200160002054905081811015610c76576040517f08c379a0000000000000000000000000000000000000000000000000000000008152600401610c6d906126ce565b60405180910390fd5b81810360008085815260200190815260200160002060008c73ffffffffffffffffffffffffffffffffffffffff1673ffffffffffffffffffffffffffffffffffffffff168152602001908152602001600020819055508160008085815260200190815260200160002060008b73ffffffffffffffffffffffffffffffffffffffff1673ffffffffffffffffffffffffffffffffffffffff1681526020019081526020016000206000828254610d2b91906126ee565b9250508190555050505080610d3f90612403565b9050610b98565b508473ffffffffffffffffffffffffffffffffffffffff168673ffffffffffffffffffffffffffffffffffffffff168273ffffffffffffffffffffffffffffffffffffffff167f4a39dc06d4c0dbc64b70af90fd698a233a518aa5d07e595d983b8c0526c8f7fb8787604051610dbd929190612744565b60405180910390a4610dd3818787878787611281565b505050505050565b60008183610de991906127aa565b905092915050565b610e8781604051602401610e0591906117cb565b6040516020818303038152906040527ff5b1bba9000000000000000000000000000000000000000000000000000000007bffffffffffffffffffffffffffffffffffffffffffffffffffffffff19166020820180517bffffffffffffffffffffffffffffffffffffffffffffffffffffffff8381831617835250505050611459565b50565b8173ffffffffffffffffffffffffffffffffffffffff168373ffffffffffffffffffffffffffffffffffffffff161415610ef9576040517f08c379a0000000000000000000000000000000000000000000000000000000008152600401610ef09061284d565b60405180910390fd5b80600160008573ffffffffffffffffffffffffffffffffffffffff1673ffffffffffffffffffffffffffffffffffffffff16815260200190815260200160002060008473ffffffffffffffffffffffffffffffffffffffff1673ffffffffffffffffffffffffffffffffffffffff16815260200190815260200160002060006101000a81548160ff0219169083151502179055508173ffffffffffffffffffffffffffffffffffffffff168373ffffffffffffffffffffffffffffffffffffffff167f17307eab39ab6107e8899845ad3d59bd9653f200f220920489ca2b5937696c3183604051610fea9190611886565b60405180910390a3505050565b600073ffffffffffffffffffffffffffffffffffffffff168473ffffffffffffffffffffffffffffffffffffffff161415611067576040517f08c379a000000000000000000000000000000000000000000000000000000000815260040161105e9061263c565b60405180910390fd5b6000611071610abf565b905061109181878761108288611482565b61108b88611482565b87611279565b600080600086815260200190815260200160002060008873ffffffffffffffffffffffffffffffffffffffff1673ffffffffffffffffffffffffffffffffffffffff16815260200190815260200160002054905083811015611128576040517f08c379a000000000000000000000000000000000000000000000000000000000815260040161111f906126ce565b60405180910390fd5b83810360008087815260200190815260200160002060008973ffffffffffffffffffffffffffffffffffffffff1673ffffffffffffffffffffffffffffffffffffffff168152602001908152602001600020819055508360008087815260200190815260200160002060008873ffffffffffffffffffffffffffffffffffffffff1673ffffffffffffffffffffffffffffffffffffffff16815260200190815260200160002060008282546111dd91906126ee565b925050819055508573ffffffffffffffffffffffffffffffffffffffff168773ffffffffffffffffffffffffffffffffffffffff168373ffffffffffffffffffffffffffffffffffffffff167fc3d58168c5ae7397731d063d5bbf3d657854427343f4c083240f7aacaa2d0f62888860405161125a92919061286d565b60405180910390a46112708288888888886114fc565b50505050505050565b505050505050565b6112a08473ffffffffffffffffffffffffffffffffffffffff16610a42565b15611451578373ffffffffffffffffffffffffffffffffffffffff1663bc197c8187878686866040518663ffffffff1660e01b81526004016112e69594939291906128fa565b6020604051808303816000875af192505050801561132257506040513d601f19601f8201168201806040525081019061131f9190612977565b60015b6113c85761132e6129b1565b806308c379a0141561138b57506113436129d3565b8061134e575061138d565b806040517f08c379a00000000000000000000000000000000000000000000000000000000081526004016113829190611967565b60405180910390fd5b505b6040517f08c379a00000000000000000000000000000000000000000000000000000000081526004016113bf90612adb565b60405180910390fd5b63bc197c8160e01b7bffffffffffffffffffffffffffffffffffffffffffffffffffffffff1916817bffffffffffffffffffffffffffffffffffffffffffffffffffffffff19161461144f576040517f08c379a000000000000000000000000000000000000000000000000000000000815260040161144690612b6d565b60405180910390fd5b505b505050505050565b60008151905060006a636f6e736f6c652e6c6f679050602083016000808483855afa5050505050565b60606000600167ffffffffffffffff8111156114a1576114a061198e565b5b6040519080825280602002602001820160405280156114cf5781602001602082028036833780820191505090505b50905082816000815181106114e7576114e66123a5565b5b60200260200101818152505080915050919050565b61151b8473ffffffffffffffffffffffffffffffffffffffff16610a42565b156116cc578373ffffffffffffffffffffffffffffffffffffffff1663f23a6e6187878686866040518663ffffffff1660e01b8152600401611561959493929190612b8d565b6020604051808303816000875af192505050801561159d57506040513d601f19601f8201168201806040525081019061159a9190612977565b60015b611643576115a96129b1565b806308c379a0141561160657506115be6129d3565b806115c95750611608565b806040517f08c379a00000000000000000000000000000000000000000000000000000000081526004016115fd9190611967565b60405180910390fd5b505b6040517f08c379a000000000000000000000000000000000000000000000000000000000815260040161163a90612adb565b60405180910390fd5b63f23a6e6160e01b7bffffffffffffffffffffffffffffffffffffffffffffffffffffffff1916817bffffffffffffffffffffffffffffffffffffffffffffffffffffffff1916146116ca576040517f08c379a00000000000000000000000000000000000000000000000000000000081526004016116c190612b6d565b60405180910390fd5b505b505050505050565b6000604051905090565b600080fd5b600080fd5b600073ffffffffffffffffffffffffffffffffffffffff82169050919050565b6000611713826116e8565b9050919050565b61172381611708565b811461172e57600080fd5b50565b6000813590506117408161171a565b92915050565b6000819050919050565b61175981611746565b811461176457600080fd5b50565b60008135905061177681611750565b92915050565b60008060408385031215611793576117926116de565b5b60006117a185828601611731565b92505060206117b285828601611767565b9150509250929050565b6117c581611746565b82525050565b60006020820190506117e060008301846117bc565b92915050565b60007fffffffff0000000000000000000000000000000000000000000000000000000082169050919050565b61181b816117e6565b811461182657600080fd5b50565b60008135905061183881611812565b92915050565b600060208284031215611854576118536116de565b5b600061186284828501611829565b91505092915050565b60008115159050919050565b6118808161186b565b82525050565b600060208201905061189b6000830184611877565b92915050565b6000602082840312156118b7576118b66116de565b5b60006118c584828501611767565b91505092915050565b600081519050919050565b600082825260208201905092915050565b60005b838110156119085780820151818401526020810190506118ed565b83811115611917576000848401525b50505050565b6000601f19601f8301169050919050565b6000611939826118ce565b61194381856118d9565b93506119538185602086016118ea565b61195c8161191d565b840191505092915050565b60006020820190508181036000830152611981818461192e565b905092915050565b600080fd5b7f4e487b7100000000000000000000000000000000000000000000000000000000600052604160045260246000fd5b6119c68261191d565b810181811067ffffffffffffffff821117156119e5576119e461198e565b5b80604052505050565b60006119f86116d4565b9050611a0482826119bd565b919050565b600067ffffffffffffffff821115611a2457611a2361198e565b5b602082029050602081019050919050565b600080fd5b6000611a4d611a4884611a09565b6119ee565b90508083825260208201905060208402830185811115611a7057611a6f611a35565b5b835b81811015611a995780611a858882611767565b845260208401935050602081019050611a72565b5050509392505050565b600082601f830112611ab857611ab7611989565b5b8135611ac8848260208601611a3a565b91505092915050565b600080fd5b600067ffffffffffffffff821115611af157611af061198e565b5b611afa8261191d565b9050602081019050919050565b82818337600083830152505050565b6000611b29611b2484611ad6565b6119ee565b905082815260208101848484011115611b4557611b44611ad1565b5b611b50848285611b07565b509392505050565b600082601f830112611b6d57611b6c611989565b5b8135611b7d848260208601611b16565b91505092915050565b600080600080600060a08688031215611ba257611ba16116de565b5b6000611bb088828901611731565b9550506020611bc188828901611731565b945050604086013567ffffffffffffffff811115611be257611be16116e3565b5b611bee88828901611aa3565b935050606086013567ffffffffffffffff811115611c0f57611c0e6116e3565b5b611c1b88828901611aa3565b925050608086013567ffffffffffffffff811115611c3c57611c3b6116e3565b5b611c4888828901611b58565b9150509295509295909350565b600067ffffffffffffffff821115611c7057611c6f61198e565b5b602082029050602081019050919050565b6000611c94611c8f84611c55565b6119ee565b90508083825260208201905060208402830185811115611cb757611cb6611a35565b5b835b81811015611ce05780611ccc8882611731565b845260208401935050602081019050611cb9565b5050509392505050565b600082601f830112611cff57611cfe611989565b5b8135611d0f848260208601611c81565b91505092915050565b60008060408385031215611d2f57611d2e6116de565b5b600083013567ffffffffffffffff811115611d4d57611d4c6116e3565b5b611d5985828601611cea565b925050602083013567ffffffffffffffff811115611d7a57611d796116e3565b5b611d8685828601611aa3565b9150509250929050565b600081519050919050565b600082825260208201905092915050565b6000819050602082019050919050565b611dc581611746565b82525050565b6000611dd78383611dbc565b60208301905092915050565b6000602082019050919050565b6000611dfb82611d90565b611e058185611d9b565b9350611e1083611dac565b8060005b83811015611e41578151611e288882611dcb565b9750611e3383611de3565b925050600181019050611e14565b5085935050505092915050565b60006020820190508181036000830152611e688184611df0565b905092915050565b60006040820190508181036000830152611e8a818561192e565b9050611e9960208301846117bc565b9392505050565b60008060408385031215611eb757611eb66116de565b5b6000611ec585828601611767565b9250506020611ed685828601611767565b9150509250929050565b611ee98161186b565b8114611ef457600080fd5b50565b600081359050611f0681611ee0565b92915050565b60008060408385031215611f2357611f226116de565b5b6000611f3185828601611731565b9250506020611f4285828601611ef7565b9150509250929050565b600081519050919050565b600082825260208201905092915050565b6000819050602082019050919050565b600082825260208201905092915050565b6000611f94826118ce565b611f9e8185611f78565b9350611fae8185602086016118ea565b611fb78161191d565b840191505092915050565b60006040830160008301518482036000860152611fdf8282611f89565b9150506020830151611ff46020860182611dbc565b508091505092915050565b600061200b8383611fc2565b905092915050565b6000602082019050919050565b600061202b82611f4c565b6120358185611f57565b93508360208202850161204785611f68565b8060005b8581101561208357848403895281516120648582611fff565b945061206f83612013565b925060208a0199505060018101905061204b565b50829750879550505050505092915050565b600060208201905081810360008301526120af8184612020565b905092915050565b600080604083850312156120ce576120cd6116de565b5b60006120dc85828601611731565b92505060206120ed85828601611731565b9150509250929050565b600080600080600060a08688031215612113576121126116de565b5b600061212188828901611731565b955050602061213288828901611731565b945050604061214388828901611767565b935050606061215488828901611767565b925050608086013567ffffffffffffffff811115612175576121746116e3565b5b61218188828901611b58565b9150509295509295909350565b7f455243313135353a2062616c616e636520717565727920666f7220746865207a60008201527f65726f2061646472657373000000000000000000000000000000000000000000602082015250565b60006121ea602b836118d9565b91506121f58261218e565b604082019050919050565b60006020820190508181036000830152612219816121dd565b9050919050565b7f4e487b7100000000000000000000000000000000000000000000000000000000600052602260045260246000fd5b6000600282049050600182168061226757607f821691505b6020821081141561227b5761227a612220565b5b50919050565b7f455243313135353a207472616e736665722063616c6c6572206973206e6f742060008201527f6f776e6572206e6f7220617070726f7665640000000000000000000000000000602082015250565b60006122dd6032836118d9565b91506122e882612281565b604082019050919050565b6000602082019050818103600083015261230c816122d0565b9050919050565b7f455243313135353a206163636f756e747320616e6420696473206c656e67746860008201527f206d69736d617463680000000000000000000000000000000000000000000000602082015250565b600061236f6029836118d9565b915061237a82612313565b604082019050919050565b6000602082019050818103600083015261239e81612362565b9050919050565b7f4e487b7100000000000000000000000000000000000000000000000000000000600052603260045260246000fd5b7f4e487b7100000000000000000000000000000000000000000000000000000000600052601160045260246000fd5b600061240e82611746565b91507fffffffffffffffffffffffffffffffffffffffffffffffffffffffffffffffff821415612441576124406123d4565b5b600182019050919050565b600061245782611746565b915061246283611746565b9250817fffffffffffffffffffffffffffffffffffffffffffffffffffffffffffffffff048311821515161561249b5761249a6123d4565b5b828202905092915050565b7f455243313135353a2063616c6c6572206973206e6f74206f776e6572206e6f7260008201527f20617070726f7665640000000000000000000000000000000000000000000000602082015250565b60006125026029836118d9565b915061250d826124a6565b604082019050919050565b60006020820190508181036000830152612531816124f5565b9050919050565b7f455243313135353a2069647320616e6420616d6f756e7473206c656e6774682060008201527f6d69736d61746368000000000000000000000000000000000000000000000000602082015250565b60006125946028836118d9565b915061259f82612538565b604082019050919050565b600060208201905081810360008301526125c381612587565b9050919050565b7f455243313135353a207472616e7366657220746f20746865207a65726f20616460008201527f6472657373000000000000000000000000000000000000000000000000000000602082015250565b60006126266025836118d9565b9150612631826125ca565b604082019050919050565b6000602082019050818103600083015261265581612619565b9050919050565b7f455243313135353a20696e73756666696369656e742062616c616e636520666f60008201527f72207472616e7366657200000000000000000000000000000000000000000000602082015250565b60006126b8602a836118d9565b91506126c38261265c565b604082019050919050565b600060208201905081810360008301526126e7816126ab565b9050919050565b60006126f982611746565b915061270483611746565b9250827fffffffffffffffffffffffffffffffffffffffffffffffffffffffffffffffff03821115612739576127386123d4565b5b828201905092915050565b6000604082019050818103600083015261275e8185611df0565b905081810360208301526127728184611df0565b90509392505050565b7f4e487b7100000000000000000000000000000000000000000000000000000000600052601260045260246000fd5b60006127b582611746565b91506127c083611746565b9250826127d0576127cf61277b565b5b828204905092915050565b7f455243313135353a2073657474696e6720617070726f76616c2073746174757360008201527f20666f722073656c660000000000000000000000000000000000000000000000602082015250565b60006128376029836118d9565b9150612842826127db565b604082019050919050565b600060208201905081810360008301526128668161282a565b9050919050565b600060408201905061288260008301856117bc565b61288f60208301846117bc565b9392505050565b61289f81611708565b82525050565b600081519050919050565b600082825260208201905092915050565b60006128cc826128a5565b6128d681856128b0565b93506128e68185602086016118ea565b6128ef8161191d565b840191505092915050565b600060a08201905061290f6000830188612896565b61291c6020830187612896565b818103604083015261292e8186611df0565b905081810360608301526129428185611df0565b9050818103608083015261295681846128c1565b90509695505050505050565b60008151905061297181611812565b92915050565b60006020828403121561298d5761298c6116de565b5b600061299b84828501612962565b91505092915050565b60008160e01c9050919050565b600060033d11156129d05760046000803e6129cd6000516129a4565b90505b90565b600060443d10156129e357612a66565b6129eb6116d4565b60043d036004823e80513d602482011167ffffffffffffffff82111715612a13575050612a66565b808201805167ffffffffffffffff811115612a315750505050612a66565b80602083010160043d038501811115612a4e575050505050612a66565b612a5d826020018501866119bd565b82955050505050505b90565b7f455243313135353a207472616e7366657220746f206e6f6e204552433131353560008201527f526563656976657220696d706c656d656e746572000000000000000000000000602082015250565b6000612ac56034836118d9565b9150612ad082612a69565b604082019050919050565b60006020820190508181036000830152612af481612ab8565b9050919050565b7f455243313135353a204552433131353552656365697665722072656a6563746560008201527f6420746f6b656e73000000000000000000000000000000000000000000000000602082015250565b6000612b576028836118d9565b9150612b6282612afb565b604082019050919050565b60006020820190508181036000830152612b8681612b4a565b9050919050565b600060a082019050612ba26000830188612896565b612baf6020830187612896565b612bbc60408301866117bc565b612bc960608301856117bc565b8181036080830152612bdb81846128c1565b9050969550505050505056fea26469706673582212203389c605df5c77d50a51ffc66a2b60e3ab845e06421ecd6fdbabd5413a2293a664736f6c634300080b003368747470733a2f2f67616d652e6578616d706c652f6170692f6974656d2f7b69647d2e6a736f6e",
  "linkReferences": {},
  "deployedLinkReferences": {}
}