{
  "_format": "hh-sol-artifact-1",
  "contractName": "MyTokens",
  "sourceName": "hardhat/contracts/MyTokens.sol",
  "abi": [
    {
      "inputs": [
        {
          "internalType": "string[]",
          "name": "_tokenNames",
          "type": "string[]"
        },
        {
          "internalType": "uint256[]",
          "name": "_tokenSupplies",
          "type": "uint256[]"
        },
        {
          "internalType": "uint256[]",
          "name": "_tokenPriceEquivalence",
          "type": "uint256[]"
        },
        {
          "internalType": "uint256",
          "name": "_floatingPoint",
          "type": "uint256"
        }
      ],
      "stateMutability": "nonpayable",
      "type": "constructor"
    },
    {
      "anonymous": false,
      "inputs": [
        {
          "indexed": true,
          "internalType": "address",
          "name": "account",
          "type": "address"
        },
        {
          "indexed": true,
          "internalType": "address",
          "name": "operator",
          "type": "address"
        },
        {
          "indexed": false,
          "internalType": "bool",
          "name": "approved",
          "type": "bool"
        }
      ],
      "name": "ApprovalForAll",
      "type": "event"
    },
    {
      "anonymous": false,
      "inputs": [
        {
          "indexed": true,
          "internalType": "address",
          "name": "operator",
          "type": "address"
        },
        {
          "indexed": true,
          "internalType": "address",
          "name": "from",
          "type": "address"
        },
        {
          "indexed": true,
          "internalType": "address",
          "name": "to",
          "type": "address"
        },
        {
          "indexed": false,
          "internalType": "uint256[]",
          "name": "ids",
          "type": "uint256[]"
        },
        {
          "indexed": false,
          "internalType": "uint256[]",
          "name": "values",
          "type": "uint256[]"
        }
      ],
      "name": "TransferBatch",
      "type": "event"
    },
    {
      "anonymous": false,
      "inputs": [
        {
          "indexed": true,
          "internalType": "address",
          "name": "operator",
          "type": "address"
        },
        {
          "indexed": true,
          "internalType": "address",
          "name": "from",
          "type": "address"
        },
        {
          "indexed": true,
          "internalType": "address",
          "name": "to",
          "type": "address"
        },
        {
          "indexed": false,
          "internalType": "uint256",
          "name": "id",
          "type": "uint256"
        },
        {
          "indexed": false,
          "internalType": "uint256",
          "name": "value",
          "type": "uint256"
        }
      ],
      "name": "TransferSingle",
      "type": "event"
    },
    {
      "anonymous": false,
      "inputs": [
        {
          "indexed": false,
          "internalType": "string",
          "name": "value",
          "type": "string"
        },
        {
          "indexed": true,
          "internalType": "uint256",
          "name": "id",
          "type": "uint256"
        }
      ],
      "name": "URI",
      "type": "event"
    },
    {
      "inputs": [
        {
          "internalType": "address",
          "name": "account",
          "type": "address"
        },
        {
          "internalType": "uint256",
          "name": "id",
          "type": "uint256"
        }
      ],
      "name": "balanceOf",
      "outputs": [
        {
          "internalType": "uint256",
          "name": "",
          "type": "uint256"
        }
      ],
      "stateMutability": "view",
      "type": "function"
    },
    {
      "inputs": [
        {
          "internalType": "address[]",
          "name": "accounts",
          "type": "address[]"
        },
        {
          "internalType": "uint256[]",
          "name": "ids",
          "type": "uint256[]"
        }
      ],
      "name": "balanceOfBatch",
      "outputs": [
        {
          "internalType": "uint256[]",
          "name": "",
          "type": "uint256[]"
        }
      ],
      "stateMutability": "view",
      "type": "function"
    },
    {
      "inputs": [
        {
          "internalType": "uint256",
          "name": "tokenId",
          "type": "uint256"
        },
        {
          "internalType": "uint256",
          "name": "amount",
          "type": "uint256"
        }
      ],
      "name": "buyToken",
      "outputs": [],
      "stateMutability": "payable",
      "type": "function"
    },
    {
      "inputs": [],
      "name": "floatingPoint",
      "outputs": [
        {
          "internalType": "uint256",
          "name": "",
          "type": "uint256"
        }
      ],
      "stateMutability": "view",
      "type": "function"
    },
    {
      "inputs": [],
      "name": "getTokens",
      "outputs": [
        {
          "components": [
            {
              "internalType": "string",
              "name": "name",
              "type": "string"
            },
            {
              "internalType": "uint256",
              "name": "supply",
              "type": "uint256"
            }
          ],
          "internalType": "struct MyTokens.Token[]",
          "name": "",
          "type": "tuple[]"
        }
      ],
      "stateMutability": "view",
      "type": "function"
    },
    {
      "inputs": [
        {
          "internalType": "address",
          "name": "account",
          "type": "address"
        },
        {
          "internalType": "address",
          "name": "operator",
          "type": "address"
        }
      ],
      "name": "isApprovedForAll",
      "outputs": [
        {
          "internalType": "bool",
          "name": "",
          "type": "bool"
        }
      ],
      "stateMutability": "view",
      "type": "function"
    },
    {
      "inputs": [
        {
          "internalType": "address",
          "name": "",
          "type": "address"
        },
        {
          "internalType": "address",
          "name": "",
          "type": "address"
        },
        {
          "internalType": "uint256[]",
          "name": "",
          "type": "uint256[]"
        },
        {
          "internalType": "uint256[]",
          "name": "",
          "type": "uint256[]"
        },
        {
          "internalType": "bytes",
          "name": "",
          "type": "bytes"
        }
      ],
      "name": "onERC1155BatchReceived",
      "outputs": [
        {
          "internalType": "bytes4",
          "name": "",
          "type": "bytes4"
        }
      ],
      "stateMutability": "nonpayable",
      "type": "function"
    },
    {
      "inputs": [
        {
          "internalType": "address",
          "name": "",
          "type": "address"
        },
        {
          "internalType": "address",
          "name": "",
          "type": "address"
        },
        {
          "internalType": "uint256",
          "name": "",
          "type": "uint256"
        },
        {
          "internalType": "uint256",
          "name": "",
          "type": "uint256"
        },
        {
          "internalType": "bytes",
          "name": "",
          "type": "bytes"
        }
      ],
      "name": "onERC1155Received",
      "outputs": [
        {
          "internalType": "bytes4",
          "name": "",
          "type": "bytes4"
        }
      ],
      "stateMutability": "nonpayable",
      "type": "function"
    },
    {
      "inputs": [
        {
          "internalType": "address",
          "name": "from",
          "type": "address"
        },
        {
          "internalType": "address",
          "name": "to",
          "type": "address"
        },
        {
          "internalType": "uint256[]",
          "name": "ids",
          "type": "uint256[]"
        },
        {
          "internalType": "uint256[]",
          "name": "amounts",
          "type": "uint256[]"
        },
        {
          "internalType": "bytes",
          "name": "data",
          "type": "bytes"
        }
      ],
      "name": "safeBatchTransferFrom",
      "outputs": [],
      "stateMutability": "nonpayable",
      "type": "function"
    },
    {
      "inputs": [
        {
          "internalType": "address",
          "name": "from",
          "type": "address"
        },
        {
          "internalType": "address",
          "name": "to",
          "type": "address"
        },
        {
          "internalType": "uint256",
          "name": "id",
          "type": "uint256"
        },
        {
          "internalType": "uint256",
          "name": "amount",
          "type": "uint256"
        },
        {
          "internalType": "bytes",
          "name": "data",
          "type": "bytes"
        }
      ],
      "name": "safeTransferFrom",
      "outputs": [],
      "stateMutability": "nonpayable",
      "type": "function"
    },
    {
      "inputs": [
        {
          "internalType": "address",
          "name": "operator",
          "type": "address"
        },
        {
          "internalType": "bool",
          "name": "approved",
          "type": "bool"
        }
      ],
      "name": "setApprovalForAll",
      "outputs": [],
      "stateMutability": "nonpayable",
      "type": "function"
    },
    {
      "inputs": [
        {
          "internalType": "bytes4",
          "name": "interfaceId",
          "type": "bytes4"
        }
      ],
      "name": "supportsInterface",
      "outputs": [
        {
          "internalType": "bool",
          "name": "",
          "type": "bool"
        }
      ],
      "stateMutability": "view",
      "type": "function"
    },
    {
      "inputs": [
        {
          "internalType": "uint256",
          "name": "tokenIdA",
          "type": "uint256"
        },
        {
          "internalType": "uint256",
          "name": "tokenIdB",
          "type": "uint256"
        },
        {
          "internalType": "uint256",
          "name": "amount",
          "type": "uint256"
        }
      ],
      "name": "swapToken",
      "outputs": [],
      "stateMutability": "payable",
      "type": "function"
    },
    {
      "inputs": [
        {
          "internalType": "uint256",
          "name": "tokenIdA",
          "type": "uint256"
        },
        {
          "internalType": "uint256",
          "name": "tokenIdB",
          "type": "uint256"
        },
        {
          "internalType": "uint256",
          "name": "amount",
          "type": "uint256"
        }
      ],
      "name": "tokenAequivalentTokenB",
      "outputs": [
        {
          "internalType": "uint256",
          "name": "",
          "type": "uint256"
        }
      ],
      "stateMutability": "view",
      "type": "function"
    },
    {
      "inputs": [
        {
          "internalType": "uint256",
          "name": "",
          "type": "uint256"
        }
      ],
      "name": "tokenEquivalenceOfSingleEther",
      "outputs": [
        {
          "internalType": "uint256",
          "name": "",
          "type": "uint256"
        }
      ],
      "stateMutability": "view",
      "type": "function"
    },
    {
      "inputs": [
        {
          "internalType": "uint256",
          "name": "tokenId",
          "type": "uint256"
        },
        {
          "internalType": "uint256",
          "name": "amount",
          "type": "uint256"
        }
      ],
      "name": "tokenToEquivalentWei",
      "outputs": [
        {
          "internalType": "uint256",
          "name": "",
          "type": "uint256"
        }
      ],
      "stateMutability": "view",
      "type": "function"
    },
    {
      "inputs": [
        {
          "internalType": "uint256",
          "name": "",
          "type": "uint256"
        }
      ],
      "name": "tokens",
      "outputs": [
        {
          "internalType": "string",
          "name": "name",
          "type": "string"
        },
        {
          "internalType": "uint256",
          "name": "supply",
          "type": "uint256"
        }
      ],
      "stateMutability": "view",
      "type": "function"
    },
    {
      "inputs": [
        {
          "internalType": "uint256",
          "name": "",
          "type": "uint256"
        }
      ],
      "name": "uri",
      "outputs": [
        {
          "internalType": "string",
          "name": "",
          "type": "string"
        }
      ],
      "stateMutability": "view",
      "type": "function"
    }
  ],
  "bytecode": "0x60806040523480156200001157600080fd5b50604051620048d5380380620048d5833981810160405281019062000037919062000b0c565b604051806060016040528060278152602001620048ae6027913962000062816200023360201b60201c565b508251845114801562000076575082518251145b620000b8576040517f08c379a0000000000000000000000000000000000000000000000000000000008152600401620000af9062000c88565b60405180910390fd5b8060058190555060005b8451811015620002285760036040518060400160405280878481518110620000ef57620000ee62000caa565b5b6020026020010151815260200186848151811062000112576200011162000caa565b5b60200260200101518152509080600181540180825580915050600190039060005260206000209060020201600090919091909150600082015181600001908051906020019062000164929190620006b2565b50602082015181600101555050620001ce3082600554600a62000188919062000e5c565b8785815181106200019e576200019d62000caa565b5b6020026020010151620001b2919062000ead565b604051806020016040528060008152506200024f60201b60201c565b6004838281518110620001e657620001e562000caa565b5b6020026020010151908060018154018082558091505060019003906000526020600020016000909190919091505580620002209062000f0e565b9050620000c2565b5050505050620014fd565b80600290805190602001906200024b929190620006b2565b5050565b600073ffffffffffffffffffffffffffffffffffffffff168473ffffffffffffffffffffffffffffffffffffffff161415620002c2576040517f08c379a0000000000000000000000000000000000000000000000000000000008152600401620002b99062000fd2565b60405180910390fd5b6000620002d46200041460201b60201c565b90506200030d81600087620002ef886200041c60201b60201c565b62000300886200041c60201b60201c565b876200049d60201b60201c565b8260008086815260200190815260200160002060008773ffffffffffffffffffffffffffffffffffffffff1673ffffffffffffffffffffffffffffffffffffffff16815260200190815260200160002060008282546200036e919062000ff4565b925050819055508473ffffffffffffffffffffffffffffffffffffffff16600073ffffffffffffffffffffffffffffffffffffffff168273ffffffffffffffffffffffffffffffffffffffff167fc3d58168c5ae7397731d063d5bbf3d657854427343f4c083240f7aacaa2d0f628787604051620003ee92919062001062565b60405180910390a46200040d81600087878787620004a560201b60201c565b5050505050565b600033905090565b60606000600167ffffffffffffffff8111156200043e576200043d6200078c565b5b6040519080825280602002602001820160405280156200046d5781602001602082028036833780820191505090505b509050828160008151811062000488576200048762000caa565b5b60200260200101818152505080915050919050565b505050505050565b620004d18473ffffffffffffffffffffffffffffffffffffffff166200069f60201b62000e361760201c565b1562000697578373ffffffffffffffffffffffffffffffffffffffff1663f23a6e6187878686866040518663ffffffff1660e01b81526004016200051a95949392919062001131565b6020604051808303816000875af19250505080156200055957506040513d601f19601f82011682018060405250810190620005569190620011f2565b60015b6200060b576200056862001231565b806308c379a01415620005cc57506200058062001256565b806200058d5750620005ce565b806040517f08c379a0000000000000000000000000000000000000000000000000000000008152600401620005c3919062001344565b60405180910390fd5b505b6040517f08c379a00000000000000000000000000000000000000000000000000000000081526004016200060290620013de565b60405180910390fd5b63f23a6e6160e01b7bffffffffffffffffffffffffffffffffffffffffffffffffffffffff1916817bffffffffffffffffffffffffffffffffffffffffffffffffffffffff19161462000695576040517f08c379a00000000000000000000000000000000000000000000000000000000081526004016200068c9062001476565b60405180910390fd5b505b505050505050565b600080823b905060008111915050919050565b828054620006c090620014c7565b90600052602060002090601f016020900481019282620006e4576000855562000730565b82601f10620006ff57805160ff191683800117855562000730565b8280016001018555821562000730579182015b828111156200072f57825182559160200191906001019062000712565b5b5090506200073f919062000743565b5090565b5b808211156200075e57600081600090555060010162000744565b5090565b6000604051905090565b600080fd5b600080fd5b600080fd5b6000601f19601f8301169050919050565b7f4e487b7100000000000000000000000000000000000000000000000000000000600052604160045260246000fd5b620007c6826200077b565b810181811067ffffffffffffffff82111715620007e857620007e76200078c565b5b80604052505050565b6000620007fd62000762565b90506200080b8282620007bb565b919050565b600067ffffffffffffffff8211156200082e576200082d6200078c565b5b602082029050602081019050919050565b600080fd5b600080fd5b600067ffffffffffffffff8211156200086757620008666200078c565b5b62000872826200077b565b9050602081019050919050565b60005b838110156200089f57808201518184015260208101905062000882565b83811115620008af576000848401525b50505050565b6000620008cc620008c68462000849565b620007f1565b905082815260208101848484011115620008eb57620008ea62000844565b5b620008f88482856200087f565b509392505050565b600082601f83011262000918576200091762000776565b5b81516200092a848260208601620008b5565b91505092915050565b60006200094a620009448462000810565b620007f1565b9050808382526020820190506020840283018581111562000970576200096f6200083f565b5b835b81811015620009be57805167ffffffffffffffff81111562000999576200099862000776565b5b808601620009a8898262000900565b8552602085019450505060208101905062000972565b5050509392505050565b600082601f830112620009e057620009df62000776565b5b8151620009f284826020860162000933565b91505092915050565b600067ffffffffffffffff82111562000a195762000a186200078c565b5b602082029050602081019050919050565b6000819050919050565b62000a3f8162000a2a565b811462000a4b57600080fd5b50565b60008151905062000a5f8162000a34565b92915050565b600062000a7c62000a7684620009fb565b620007f1565b9050808382526020820190506020840283018581111562000aa25762000aa16200083f565b5b835b8181101562000acf578062000aba888262000a4e565b84526020840193505060208101905062000aa4565b5050509392505050565b600082601f83011262000af15762000af062000776565b5b815162000b0384826020860162000a65565b91505092915050565b6000806000806080858703121562000b295762000b286200076c565b5b600085015167ffffffffffffffff81111562000b4a5762000b4962000771565b5b62000b5887828801620009c8565b945050602085015167ffffffffffffffff81111562000b7c5762000b7b62000771565b5b62000b8a8782880162000ad9565b935050604085015167ffffffffffffffff81111562000bae5762000bad62000771565b5b62000bbc8782880162000ad9565b925050606062000bcf8782880162000a4e565b91505092959194509250565b600082825260208201905092915050565b7f596f75206d7573742070726f7669646520657175616c206e756d62657273206f60008201527f66206e616d652c20746f6b656e537570706c69657320616e642065717569766160208201527f6c656e7450726963650000000000000000000000000000000000000000000000604082015250565b600062000c7060498362000bdb565b915062000c7d8262000bec565b606082019050919050565b6000602082019050818103600083015262000ca38162000c61565b9050919050565b7f4e487b7100000000000000000000000000000000000000000000000000000000600052603260045260246000fd5b7f4e487b7100000000000000000000000000000000000000000000000000000000600052601160045260246000fd5b60008160011c9050919050565b6000808291508390505b600185111562000d675780860481111562000d3f5762000d3e62000cd9565b5b600185161562000d4f5780820291505b808102905062000d5f8562000d08565b945062000d1f565b94509492505050565b60008262000d82576001905062000e55565b8162000d92576000905062000e55565b816001811462000dab576002811462000db65762000dec565b600191505062000e55565b60ff84111562000dcb5762000dca62000cd9565b5b8360020a91508482111562000de55762000de462000cd9565b5b5062000e55565b5060208310610133831016604e8410600b841016171562000e265782820a90508381111562000e205762000e1f62000cd9565b5b62000e55565b62000e35848484600162000d15565b9250905081840481111562000e4f5762000e4e62000cd9565b5b81810290505b9392505050565b600062000e698262000a2a565b915062000e768362000a2a565b925062000ea57fffffffffffffffffffffffffffffffffffffffffffffffffffffffffffffffff848462000d70565b905092915050565b600062000eba8262000a2a565b915062000ec78362000a2a565b9250817fffffffffffffffffffffffffffffffffffffffffffffffffffffffffffffffff048311821515161562000f035762000f0262000cd9565b5b828202905092915050565b600062000f1b8262000a2a565b91507fffffffffffffffffffffffffffffffffffffffffffffffffffffffffffffffff82141562000f515762000f5062000cd9565b5b600182019050919050565b7f455243313135353a206d696e7420746f20746865207a65726f2061646472657360008201527f7300000000000000000000000000000000000000000000000000000000000000602082015250565b600062000fba60218362000bdb565b915062000fc78262000f5c565b604082019050919050565b6000602082019050818103600083015262000fed8162000fab565b9050919050565b6000620010018262000a2a565b91506200100e8362000a2a565b9250827fffffffffffffffffffffffffffffffffffffffffffffffffffffffffffffffff0382111562001046576200104562000cd9565b5b828201905092915050565b6200105c8162000a2a565b82525050565b600060408201905062001079600083018562001051565b62001088602083018462001051565b9392505050565b600073ffffffffffffffffffffffffffffffffffffffff82169050919050565b6000620010bc826200108f565b9050919050565b620010ce81620010af565b82525050565b600081519050919050565b600082825260208201905092915050565b6000620010fd82620010d4565b620011098185620010df565b93506200111b8185602086016200087f565b62001126816200077b565b840191505092915050565b600060a082019050620011486000830188620010c3565b620011576020830187620010c3565b62001166604083018662001051565b62001175606083018562001051565b8181036080830152620011898184620010f0565b90509695505050505050565b60007fffffffff0000000000000000000000000000000000000000000000000000000082169050919050565b620011cc8162001195565b8114620011d857600080fd5b50565b600081519050620011ec81620011c1565b92915050565b6000602082840312156200120b576200120a6200076c565b5b60006200121b84828501620011db565b91505092915050565b60008160e01c9050919050565b600060033d1115620012535760046000803e6200125060005162001224565b90505b90565b600060443d10156200126857620012f5565b6200127262000762565b60043d036004823e80513d602482011167ffffffffffffffff821117156200129c575050620012f5565b808201805167ffffffffffffffff811115620012bc5750505050620012f5565b80602083010160043d038501811115620012db575050505050620012f5565b620012ec82602001850186620007bb565b82955050505050505b90565b600081519050919050565b60006200131082620012f8565b6200131c818562000bdb565b93506200132e8185602086016200087f565b62001339816200077b565b840191505092915050565b6000602082019050818103600083015262001360818462001303565b905092915050565b7f455243313135353a207472616e7366657220746f206e6f6e204552433131353560008201527f526563656976657220696d706c656d656e746572000000000000000000000000602082015250565b6000620013c660348362000bdb565b9150620013d38262001368565b604082019050919050565b60006020820190508181036000830152620013f981620013b7565b9050919050565b7f455243313135353a204552433131353552656365697665722072656a6563746560008201527f6420746f6b656e73000000000000000000000000000000000000000000000000602082015250565b60006200145e60288362000bdb565b91506200146b8262001400565b604082019050919050565b6000602082019050818103600083015262001491816200144f565b9050919050565b7f4e487b7100000000000000000000000000000000000000000000000000000000600052602260045260246000fd5b60006002820490506001821680620014e057607f821691505b60208210811415620014f757620014f662001498565b5b50919050565b6133a1806200150d6000396000f3fe6080604052600436106101085760003560e01c806367fa33bb11610095578063bc197c8111610064578063bc197c8114610399578063e94d3d7b146103d6578063e985e9c514610413578063f23a6e6114610450578063f242432a1461048d57610108565b806367fa33bb146102ec5780637091e41014610308578063a22cb46514610345578063aa6ca8081461036e57610108565b80630e89341c116100dc5780630e89341c146101ce5780632eb2c2d61461020b5780634e1273f4146102345780634f64b2be14610271578063531c0931146102af57610108565b8062fdd58e1461010d57806301ffc9a71461014a5780630377f4c414610187578063057466ea146101b2575b600080fd5b34801561011957600080fd5b50610134600480360381019061012f9190611d65565b6104b6565b6040516101419190611db4565b60405180910390f35b34801561015657600080fd5b50610171600480360381019061016c9190611e27565b61057f565b60405161017e9190611e6f565b60405180910390f35b34801561019357600080fd5b5061019c6105f9565b6040516101a99190611db4565b60405180910390f35b6101cc60048036038101906101c79190611e8a565b6105ff565b005b3480156101da57600080fd5b506101f560048036038101906101f09190611eca565b610726565b6040516102029190611f90565b60405180910390f35b34801561021757600080fd5b50610232600480360381019061022d91906121af565b6107ba565b005b34801561024057600080fd5b5061025b60048036038101906102569190612341565b61085b565b6040516102689190612477565b60405180910390f35b34801561027d57600080fd5b5061029860048036038101906102939190611eca565b610974565b6040516102a6929190612499565b60405180910390f35b3480156102bb57600080fd5b506102d660048036038101906102d19190611e8a565b610a30565b6040516102e39190611db4565b60405180910390f35b610306600480360381019061030191906124c9565b610a8d565b005b34801561031457600080fd5b5061032f600480360381019061032a9190611eca565b610b29565b60405161033c9190611db4565b60405180910390f35b34801561035157600080fd5b5061036c60048036038101906103679190612548565b610b4d565b005b34801561037a57600080fd5b50610383610b63565b60405161039091906126d1565b60405180910390f35b3480156103a557600080fd5b506103c060048036038101906103bb91906121af565b610c5e565b6040516103cd9190612702565b60405180910390f35b3480156103e257600080fd5b506103fd60048036038101906103f891906124c9565b610c73565b60405161040a9190611db4565b60405180910390f35b34801561041f57600080fd5b5061043a6004803603810190610435919061271d565b610cec565b6040516104479190611e6f565b60405180910390f35b34801561045c57600080fd5b506104776004803603810190610472919061275d565b610d80565b6040516104849190612702565b60405180910390f35b34801561049957600080fd5b506104b460048036038101906104af919061275d565b610d95565b005b60008073ffffffffffffffffffffffffffffffffffffffff168373ffffffffffffffffffffffffffffffffffffffff161415610527576040517f08c379a000000000000000000000000000000000000000000000000000000000815260040161051e90612866565b60405180910390fd5b60008083815260200190815260200160002060008473ffffffffffffffffffffffffffffffffffffffff1673ffffffffffffffffffffffffffffffffffffffff16815260200190815260200160002054905092915050565b60007f4e2312e0000000000000000000000000000000000000000000000000000000007bffffffffffffffffffffffffffffffffffffffffffffffffffffffff1916827bffffffffffffffffffffffffffffffffffffffffffffffffffffffff191614806105f257506105f182610e49565b5b9050919050565b60055481565b61063d6040518060400160405280601581526020017f62757920746f6b656e203a206d73672e76616c75650000000000000000000000815250610ec3565b61064634610f5c565b6106586106538383610a30565b610f5c565b6103e86106658383610a30565b61066f91906128b5565b3410156106b1576040517f08c379a00000000000000000000000000000000000000000000000000000000081526004016106a890612935565b60405180910390fd5b3073ffffffffffffffffffffffffffffffffffffffff1663f242432a303385856040518563ffffffff1660e01b81526004016106f0949392919061299b565b600060405180830381600087803b15801561070a57600080fd5b505af115801561071e573d6000803e3d6000fd5b505050505050565b60606002805461073590612a22565b80601f016020809104026020016040519081016040528092919081815260200182805461076190612a22565b80156107ae5780601f10610783576101008083540402835291602001916107ae565b820191906000526020600020905b81548152906001019060200180831161079157829003601f168201915b50505050509050919050565b6107c2610ff5565b73ffffffffffffffffffffffffffffffffffffffff168573ffffffffffffffffffffffffffffffffffffffff161480610808575061080785610802610ff5565b610cec565b5b610847576040517f08c379a000000000000000000000000000000000000000000000000000000000815260040161083e90612ac6565b60405180910390fd5b6108548585858585610ffd565b5050505050565b606081518351146108a1576040517f08c379a000000000000000000000000000000000000000000000000000000000815260040161089890612b58565b60405180910390fd5b6000835167ffffffffffffffff8111156108be576108bd611fb7565b5b6040519080825280602002602001820160405280156108ec5781602001602082028036833780820191505090505b50905060005b84518110156109695761093985828151811061091157610910612b78565b5b602002602001015185838151811061092c5761092b612b78565b5b60200260200101516104b6565b82828151811061094c5761094b612b78565b5b6020026020010181815250508061096290612ba7565b90506108f2565b508091505092915050565b6003818154811061098457600080fd5b90600052602060002090600202016000915090508060000180546109a790612a22565b80601f01602080910402602001604051908101604052809291908181526020018280546109d390612a22565b8015610a205780601f106109f557610100808354040283529160200191610a20565b820191906000526020600020905b815481529060010190602001808311610a0357829003601f168201915b5050505050908060010154905082565b6000670de0b6b3a764000082610a469190612bf0565b9150600060048481548110610a5e57610a5d612b78565b5b906000526020600020015490506000610a80828561131190919063ffffffff16565b9050809250505092915050565b610aa93330858460405180602001604052806000815250610d95565b3073ffffffffffffffffffffffffffffffffffffffff1663f242432a303385610ad3888888610c73565b6040518563ffffffff1660e01b8152600401610af2949392919061299b565b600060405180830381600087803b158015610b0c57600080fd5b505af1158015610b20573d6000803e3d6000fd5b50505050505050565b60048181548110610b3957600080fd5b906000526020600020016000915090505481565b610b5f610b58610ff5565b8383611327565b5050565b60606003805480602002602001604051908101604052809291908181526020016000905b82821015610c555783829060005260206000209060020201604051806040016040529081600082018054610bba90612a22565b80601f0160208091040260200160405190810160405280929190818152602001828054610be690612a22565b8015610c335780601f10610c0857610100808354040283529160200191610c33565b820191906000526020600020905b815481529060010190602001808311610c1657829003601f168201915b5050505050815260200160018201548152505081526020019060010190610b87565b50505050905090565b600063bc197c8160e01b905095945050505050565b60008060048581548110610c8a57610c89612b78565b5b90600052602060002001549050600060048581548110610cad57610cac612b78565b5b906000526020600020015490508084610cc69190612bf0565b93506000610cdd838661131190919063ffffffff16565b90508093505050509392505050565b6000600160008473ffffffffffffffffffffffffffffffffffffffff1673ffffffffffffffffffffffffffffffffffffffff16815260200190815260200160002060008373ffffffffffffffffffffffffffffffffffffffff1673ffffffffffffffffffffffffffffffffffffffff16815260200190815260200160002060009054906101000a900460ff16905092915050565b600063f23a6e6160e01b905095945050505050565b610d9d610ff5565b73ffffffffffffffffffffffffffffffffffffffff168573ffffffffffffffffffffffffffffffffffffffff161480610de35750610de285610ddd610ff5565b610cec565b5b610e22576040517f08c379a0000000000000000000000000000000000000000000000000000000008152600401610e1990612cbc565b60405180910390fd5b610e2f8585858585611494565b5050505050565b600080823b905060008111915050919050565b60007f4e2312e0000000000000000000000000000000000000000000000000000000007bffffffffffffffffffffffffffffffffffffffffffffffffffffffff1916827bffffffffffffffffffffffffffffffffffffffffffffffffffffffff19161480610ebc5750610ebb82611716565b5b9050919050565b610f5981604051602401610ed79190611f90565b6040516020818303038152906040527f41304fac000000000000000000000000000000000000000000000000000000007bffffffffffffffffffffffffffffffffffffffffffffffffffffffff19166020820180517bffffffffffffffffffffffffffffffffffffffffffffffffffffffff83818316178352505050506117f8565b50565b610ff281604051602401610f709190611db4565b6040516020818303038152906040527ff5b1bba9000000000000000000000000000000000000000000000000000000007bffffffffffffffffffffffffffffffffffffffffffffffffffffffff19166020820180517bffffffffffffffffffffffffffffffffffffffffffffffffffffffff83818316178352505050506117f8565b50565b600033905090565b8151835114611041576040517f08c379a000000000000000000000000000000000000000000000000000000000815260040161103890612d4e565b60405180910390fd5b600073ffffffffffffffffffffffffffffffffffffffff168473ffffffffffffffffffffffffffffffffffffffff1614156110b1576040517f08c379a00000000000000000000000000000000000000000000000000000000081526004016110a890612de0565b60405180910390fd5b60006110bb610ff5565b90506110cb818787878787611821565b60005b845181101561127c5760008582815181106110ec576110eb612b78565b5b60200260200101519050600085838151811061110b5761110a612b78565b5b60200260200101519050600080600084815260200190815260200160002060008b73ffffffffffffffffffffffffffffffffffffffff1673ffffffffffffffffffffffffffffffffffffffff168152602001908152602001600020549050818110156111ac576040517f08c379a00000000000000000000000000000000000000000000000000000000081526004016111a390612e72565b60405180910390fd5b81810360008085815260200190815260200160002060008c73ffffffffffffffffffffffffffffffffffffffff1673ffffffffffffffffffffffffffffffffffffffff168152602001908152602001600020819055508160008085815260200190815260200160002060008b73ffffffffffffffffffffffffffffffffffffffff1673ffffffffffffffffffffffffffffffffffffffff16815260200190815260200160002060008282546112619190612e92565b925050819055505050508061127590612ba7565b90506110ce565b508473ffffffffffffffffffffffffffffffffffffffff168673ffffffffffffffffffffffffffffffffffffffff168273ffffffffffffffffffffffffffffffffffffffff167f4a39dc06d4c0dbc64b70af90fd698a233a518aa5d07e595d983b8c0526c8f7fb87876040516112f3929190612ee8565b60405180910390a4611309818787878787611829565b505050505050565b6000818361131f9190612f4e565b905092915050565b8173ffffffffffffffffffffffffffffffffffffffff168373ffffffffffffffffffffffffffffffffffffffff161415611396576040517f08c379a000000000000000000000000000000000000000000000000000000000815260040161138d90612ff1565b60405180910390fd5b80600160008573ffffffffffffffffffffffffffffffffffffffff1673ffffffffffffffffffffffffffffffffffffffff16815260200190815260200160002060008473ffffffffffffffffffffffffffffffffffffffff1673ffffffffffffffffffffffffffffffffffffffff16815260200190815260200160002060006101000a81548160ff0219169083151502179055508173ffffffffffffffffffffffffffffffffffffffff168373ffffffffffffffffffffffffffffffffffffffff167f17307eab39ab6107e8899845ad3d59bd9653f200f220920489ca2b5937696c31836040516114879190611e6f565b60405180910390a3505050565b600073ffffffffffffffffffffffffffffffffffffffff168473ffffffffffffffffffffffffffffffffffffffff161415611504576040517f08c379a00000000000000000000000000000000000000000000000000000000081526004016114fb90612de0565b60405180910390fd5b600061150e610ff5565b905061152e81878761151f88611a01565b61152888611a01565b87611821565b600080600086815260200190815260200160002060008873ffffffffffffffffffffffffffffffffffffffff1673ffffffffffffffffffffffffffffffffffffffff168152602001908152602001600020549050838110156115c5576040517f08c379a00000000000000000000000000000000000000000000000000000000081526004016115bc90612e72565b60405180910390fd5b83810360008087815260200190815260200160002060008973ffffffffffffffffffffffffffffffffffffffff1673ffffffffffffffffffffffffffffffffffffffff168152602001908152602001600020819055508360008087815260200190815260200160002060008873ffffffffffffffffffffffffffffffffffffffff1673ffffffffffffffffffffffffffffffffffffffff168152602001908152602001600020600082825461167a9190612e92565b925050819055508573ffffffffffffffffffffffffffffffffffffffff168773ffffffffffffffffffffffffffffffffffffffff168373ffffffffffffffffffffffffffffffffffffffff167fc3d58168c5ae7397731d063d5bbf3d657854427343f4c083240f7aacaa2d0f6288886040516116f7929190613011565b60405180910390a461170d828888888888611a7b565b50505050505050565b60007fd9b67a26000000000000000000000000000000000000000000000000000000007bffffffffffffffffffffffffffffffffffffffffffffffffffffffff1916827bffffffffffffffffffffffffffffffffffffffffffffffffffffffff191614806117e157507f0e89341c000000000000000000000000000000000000000000000000000000007bffffffffffffffffffffffffffffffffffffffffffffffffffffffff1916827bffffffffffffffffffffffffffffffffffffffffffffffffffffffff1916145b806117f157506117f082611c53565b5b9050919050565b60008151905060006a636f6e736f6c652e6c6f679050602083016000808483855afa5050505050565b505050505050565b6118488473ffffffffffffffffffffffffffffffffffffffff16610e36565b156119f9578373ffffffffffffffffffffffffffffffffffffffff1663bc197c8187878686866040518663ffffffff1660e01b815260040161188e95949392919061307e565b6020604051808303816000875af19250505080156118ca57506040513d601f19601f820116820180604052508101906118c791906130fb565b60015b611970576118d6613135565b806308c379a0141561193357506118eb613157565b806118f65750611935565b806040517f08c379a000000000000000000000000000000000000000000000000000000000815260040161192a9190611f90565b60405180910390fd5b505b6040517f08c379a00000000000000000000000000000000000000000000000000000000081526004016119679061325f565b60405180910390fd5b63bc197c8160e01b7bffffffffffffffffffffffffffffffffffffffffffffffffffffffff1916817bffffffffffffffffffffffffffffffffffffffffffffffffffffffff1916146119f7576040517f08c379a00000000000000000000000000000000000000000000000000000000081526004016119ee906132f1565b60405180910390fd5b505b505050505050565b60606000600167ffffffffffffffff811115611a2057611a1f611fb7565b5b604051908082528060200260200182016040528015611a4e5781602001602082028036833780820191505090505b5090508281600081518110611a6657611a65612b78565b5b60200260200101818152505080915050919050565b611a9a8473ffffffffffffffffffffffffffffffffffffffff16610e36565b15611c4b578373ffffffffffffffffffffffffffffffffffffffff1663f23a6e6187878686866040518663ffffffff1660e01b8152600401611ae0959493929190613311565b6020604051808303816000875af1925050508015611b1c57506040513d601f19601f82011682018060405250810190611b1991906130fb565b60015b611bc257611b28613135565b806308c379a01415611b855750611b3d613157565b80611b485750611b87565b806040517f08c379a0000000000000000000000000000000000000000000000000000000008152600401611b7c9190611f90565b60405180910390fd5b505b6040517f08c379a0000000000000000000000000000000000000000000000000000000008152600401611bb99061325f565b60405180910390fd5b63f23a6e6160e01b7bffffffffffffffffffffffffffffffffffffffffffffffffffffffff1916817bffffffffffffffffffffffffffffffffffffffffffffffffffffffff191614611c49576040517f08c379a0000000000000000000000000000000000000000000000000000000008152600401611c40906132f1565b60405180910390fd5b505b505050505050565b60007f01ffc9a7000000000000000000000000000000000000000000000000000000007bffffffffffffffffffffffffffffffffffffffffffffffffffffffff1916827bffffffffffffffffffffffffffffffffffffffffffffffffffffffff1916149050919050565b6000604051905090565b600080fd5b600080fd5b600073ffffffffffffffffffffffffffffffffffffffff82169050919050565b6000611cfc82611cd1565b9050919050565b611d0c81611cf1565b8114611d1757600080fd5b50565b600081359050611d2981611d03565b92915050565b6000819050919050565b611d4281611d2f565b8114611d4d57600080fd5b50565b600081359050611d5f81611d39565b92915050565b60008060408385031215611d7c57611d7b611cc7565b5b6000611d8a85828601611d1a565b9250506020611d9b85828601611d50565b9150509250929050565b611dae81611d2f565b82525050565b6000602082019050611dc96000830184611da5565b92915050565b60007fffffffff0000000000000000000000000000000000000000000000000000000082169050919050565b611e0481611dcf565b8114611e0f57600080fd5b50565b600081359050611e2181611dfb565b92915050565b600060208284031215611e3d57611e3c611cc7565b5b6000611e4b84828501611e12565b91505092915050565b60008115159050919050565b611e6981611e54565b82525050565b6000602082019050611e846000830184611e60565b92915050565b60008060408385031215611ea157611ea0611cc7565b5b6000611eaf85828601611d50565b9250506020611ec085828601611d50565b9150509250929050565b600060208284031215611ee057611edf611cc7565b5b6000611eee84828501611d50565b91505092915050565b600081519050919050565b600082825260208201905092915050565b60005b83811015611f31578082015181840152602081019050611f16565b83811115611f40576000848401525b50505050565b6000601f19601f8301169050919050565b6000611f6282611ef7565b611f6c8185611f02565b9350611f7c818560208601611f13565b611f8581611f46565b840191505092915050565b60006020820190508181036000830152611faa8184611f57565b905092915050565b600080fd5b7f4e487b7100000000000000000000000000000000000000000000000000000000600052604160045260246000fd5b611fef82611f46565b810181811067ffffffffffffffff8211171561200e5761200d611fb7565b5b80604052505050565b6000612021611cbd565b905061202d8282611fe6565b919050565b600067ffffffffffffffff82111561204d5761204c611fb7565b5b602082029050602081019050919050565b600080fd5b600061207661207184612032565b612017565b905080838252602082019050602084028301858111156120995761209861205e565b5b835b818110156120c257806120ae8882611d50565b84526020840193505060208101905061209b565b5050509392505050565b600082601f8301126120e1576120e0611fb2565b5b81356120f1848260208601612063565b91505092915050565b600080fd5b600067ffffffffffffffff82111561211a57612119611fb7565b5b61212382611f46565b9050602081019050919050565b82818337600083830152505050565b600061215261214d846120ff565b612017565b90508281526020810184848401111561216e5761216d6120fa565b5b612179848285612130565b509392505050565b600082601f83011261219657612195611fb2565b5b81356121a684826020860161213f565b91505092915050565b600080600080600060a086880312156121cb576121ca611cc7565b5b60006121d988828901611d1a565b95505060206121ea88828901611d1a565b945050604086013567ffffffffffffffff81111561220b5761220a611ccc565b5b612217888289016120cc565b935050606086013567ffffffffffffffff81111561223857612237611ccc565b5b612244888289016120cc565b925050608086013567ffffffffffffffff81111561226557612264611ccc565b5b61227188828901612181565b9150509295509295909350565b600067ffffffffffffffff82111561229957612298611fb7565b5b602082029050602081019050919050565b60006122bd6122b88461227e565b612017565b905080838252602082019050602084028301858111156122e0576122df61205e565b5b835b8181101561230957806122f58882611d1a565b8452602084019350506020810190506122e2565b5050509392505050565b600082601f83011261232857612327611fb2565b5b81356123388482602086016122aa565b91505092915050565b6000806040838503121561235857612357611cc7565b5b600083013567ffffffffffffffff81111561237657612375611ccc565b5b61238285828601612313565b925050602083013567ffffffffffffffff8111156123a3576123a2611ccc565b5b6123af858286016120cc565b9150509250929050565b600081519050919050565b600082825260208201905092915050565b6000819050602082019050919050565b6123ee81611d2f565b82525050565b600061240083836123e5565b60208301905092915050565b6000602082019050919050565b6000612424826123b9565b61242e81856123c4565b9350612439836123d5565b8060005b8381101561246a57815161245188826123f4565b975061245c8361240c565b92505060018101905061243d565b5085935050505092915050565b600060208201905081810360008301526124918184612419565b905092915050565b600060408201905081810360008301526124b38185611f57565b90506124c26020830184611da5565b9392505050565b6000806000606084860312156124e2576124e1611cc7565b5b60006124f086828701611d50565b935050602061250186828701611d50565b925050604061251286828701611d50565b9150509250925092565b61252581611e54565b811461253057600080fd5b50565b6000813590506125428161251c565b92915050565b6000806040838503121561255f5761255e611cc7565b5b600061256d85828601611d1a565b925050602061257e85828601612533565b9150509250929050565b600081519050919050565b600082825260208201905092915050565b6000819050602082019050919050565b600082825260208201905092915050565b60006125d082611ef7565b6125da81856125b4565b93506125ea818560208601611f13565b6125f381611f46565b840191505092915050565b6000604083016000830151848203600086015261261b82826125c5565b915050602083015161263060208601826123e5565b508091505092915050565b600061264783836125fe565b905092915050565b6000602082019050919050565b600061266782612588565b6126718185612593565b935083602082028501612683856125a4565b8060005b858110156126bf57848403895281516126a0858261263b565b94506126ab8361264f565b925060208a01995050600181019050612687565b50829750879550505050505092915050565b600060208201905081810360008301526126eb818461265c565b905092915050565b6126fc81611dcf565b82525050565b600060208201905061271760008301846126f3565b92915050565b6000806040838503121561273457612733611cc7565b5b600061274285828601611d1a565b925050602061275385828601611d1a565b9150509250929050565b600080600080600060a0868803121561277957612778611cc7565b5b600061278788828901611d1a565b955050602061279888828901611d1a565b94505060406127a988828901611d50565b93505060606127ba88828901611d50565b925050608086013567ffffffffffffffff8111156127db576127da611ccc565b5b6127e788828901612181565b9150509295509295909350565b7f455243313135353a2062616c616e636520717565727920666f7220746865207a60008201527f65726f2061646472657373000000000000000000000000000000000000000000602082015250565b6000612850602b83611f02565b915061285b826127f4565b604082019050919050565b6000602082019050818103600083015261287f81612843565b9050919050565b7f4e487b7100000000000000000000000000000000000000000000000000000000600052601160045260246000fd5b60006128c082611d2f565b91506128cb83611d2f565b9250828210156128de576128dd612886565b5b828203905092915050565b7f416d6f756e74206e6f742070726f76696465642c2062757920746f6b656e0000600082015250565b600061291f601e83611f02565b915061292a826128e9565b602082019050919050565b6000602082019050818103600083015261294e81612912565b9050919050565b61295e81611cf1565b82525050565b600082825260208201905092915050565b50565b6000612985600083612964565b915061299082612975565b600082019050919050565b600060a0820190506129b06000830187612955565b6129bd6020830186612955565b6129ca6040830185611da5565b6129d76060830184611da5565b81810360808301526129e881612978565b905095945050505050565b7f4e487b7100000000000000000000000000000000000000000000000000000000600052602260045260246000fd5b60006002820490506001821680612a3a57607f821691505b60208210811415612a4e57612a4d6129f3565b5b50919050565b7f455243313135353a207472616e736665722063616c6c6572206973206e6f742060008201527f6f776e6572206e6f7220617070726f7665640000000000000000000000000000602082015250565b6000612ab0603283611f02565b9150612abb82612a54565b604082019050919050565b60006020820190508181036000830152612adf81612aa3565b9050919050565b7f455243313135353a206163636f756e747320616e6420696473206c656e67746860008201527f206d69736d617463680000000000000000000000000000000000000000000000602082015250565b6000612b42602983611f02565b9150612b4d82612ae6565b604082019050919050565b60006020820190508181036000830152612b7181612b35565b9050919050565b7f4e487b7100000000000000000000000000000000000000000000000000000000600052603260045260246000fd5b6000612bb282611d2f565b91507fffffffffffffffffffffffffffffffffffffffffffffffffffffffffffffffff821415612be557612be4612886565b5b600182019050919050565b6000612bfb82611d2f565b9150612c0683611d2f565b9250817fffffffffffffffffffffffffffffffffffffffffffffffffffffffffffffffff0483118215151615612c3f57612c3e612886565b5b828202905092915050565b7f455243313135353a2063616c6c6572206973206e6f74206f776e6572206e6f7260008201527f20617070726f7665640000000000000000000000000000000000000000000000602082015250565b6000612ca6602983611f02565b9150612cb182612c4a565b604082019050919050565b60006020820190508181036000830152612cd581612c99565b9050919050565b7f455243313135353a2069647320616e6420616d6f756e7473206c656e6774682060008201527f6d69736d61746368000000000000000000000000000000000000000000000000602082015250565b6000612d38602883611f02565b9150612d4382612cdc565b604082019050919050565b60006020820190508181036000830152612d6781612d2b565b9050919050565b7f455243313135353a207472616e7366657220746f20746865207a65726f20616460008201527f6472657373000000000000000000000000000000000000000000000000000000602082015250565b6000612dca602583611f02565b9150612dd582612d6e565b604082019050919050565b60006020820190508181036000830152612df981612dbd565b9050919050565b7f455243313135353a20696e73756666696369656e742062616c616e636520666f60008201527f72207472616e7366657200000000000000000000000000000000000000000000602082015250565b6000612e5c602a83611f02565b9150612e6782612e00565b604082019050919050565b60006020820190508181036000830152612e8b81612e4f565b9050919050565b6000612e9d82611d2f565b9150612ea883611d2f565b9250827fffffffffffffffffffffffffffffffffffffffffffffffffffffffffffffffff03821115612edd57612edc612886565b5b828201905092915050565b60006040820190508181036000830152612f028185612419565b90508181036020830152612f168184612419565b90509392505050565b7f4e487b7100000000000000000000000000000000000000000000000000000000600052601260045260246000fd5b6000612f5982611d2f565b9150612f6483611d2f565b925082612f7457612f73612f1f565b5b828204905092915050565b7f455243313135353a2073657474696e6720617070726f76616c2073746174757360008201527f20666f722073656c660000000000000000000000000000000000000000000000602082015250565b6000612fdb602983611f02565b9150612fe682612f7f565b604082019050919050565b6000602082019050818103600083015261300a81612fce565b9050919050565b60006040820190506130266000830185611da5565b6130336020830184611da5565b9392505050565b600081519050919050565b60006130508261303a565b61305a8185612964565b935061306a818560208601611f13565b61307381611f46565b840191505092915050565b600060a0820190506130936000830188612955565b6130a06020830187612955565b81810360408301526130b28186612419565b905081810360608301526130c68185612419565b905081810360808301526130da8184613045565b90509695505050505050565b6000815190506130f581611dfb565b92915050565b60006020828403121561311157613110611cc7565b5b600061311f848285016130e6565b91505092915050565b60008160e01c9050919050565b600060033d11156131545760046000803e613151600051613128565b90505b90565b600060443d1015613167576131ea565b61316f611cbd565b60043d036004823e80513d602482011167ffffffffffffffff821117156131975750506131ea565b808201805167ffffffffffffffff8111156131b557505050506131ea565b80602083010160043d0385018111156131d25750505050506131ea565b6131e182602001850186611fe6565b82955050505050505b90565b7f455243313135353a207472616e7366657220746f206e6f6e204552433131353560008201527f526563656976657220696d706c656d656e746572000000000000000000000000602082015250565b6000613249603483611f02565b9150613254826131ed565b604082019050919050565b600060208201905081810360008301526132788161323c565b9050919050565b7f455243313135353a204552433131353552656365697665722072656a6563746560008201527f6420746f6b656e73000000000000000000000000000000000000000000000000602082015250565b60006132db602883611f02565b91506132e68261327f565b604082019050919050565b6000602082019050818103600083015261330a816132ce565b9050919050565b600060a0820190506133266000830188612955565b6133336020830187612955565b6133406040830186611da5565b61334d6060830185611da5565b818103608083015261335f8184613045565b9050969550505050505056fea2646970667358221220fdd098db445ca715751520b971b97921c22417166a48dbb47a669fad3c6fceab64736f6c634300080b003368747470733a2f2f67616d652e6578616d706c652f6170692f6974656d2f7b69647d2e6a736f6e",
  "linkReferences": {},
  "deployedLinkReferences": {}
}