{
  "_format": "hh-sol-artifact-1",
  "contractName": "MyTokens",
  "sourceName": "hardhat/contracts/MyTokens.sol",
  "abi": [
    {
      "inputs": [
        {
          "internalType": "string[]",
          "name": "_tokenNames",
          "type": "string[]"
        },
        {
          "internalType": "uint256[]",
          "name": "_tokenSupplies",
          "type": "uint256[]"
        },
        {
          "internalType": "uint256[]",
          "name": "_tokenPriceEquivalence",
          "type": "uint256[]"
        }
      ],
      "stateMutability": "nonpayable",
      "type": "constructor"
    },
    {
      "anonymous": false,
      "inputs": [
        {
          "indexed": true,
          "internalType": "address",
          "name": "account",
          "type": "address"
        },
        {
          "indexed": true,
          "internalType": "address",
          "name": "operator",
          "type": "address"
        },
        {
          "indexed": false,
          "internalType": "bool",
          "name": "approved",
          "type": "bool"
        }
      ],
      "name": "ApprovalForAll",
      "type": "event"
    },
    {
      "anonymous": false,
      "inputs": [
        {
          "indexed": true,
          "internalType": "address",
          "name": "operator",
          "type": "address"
        },
        {
          "indexed": true,
          "internalType": "address",
          "name": "from",
          "type": "address"
        },
        {
          "indexed": true,
          "internalType": "address",
          "name": "to",
          "type": "address"
        },
        {
          "indexed": false,
          "internalType": "uint256[]",
          "name": "ids",
          "type": "uint256[]"
        },
        {
          "indexed": false,
          "internalType": "uint256[]",
          "name": "values",
          "type": "uint256[]"
        }
      ],
      "name": "TransferBatch",
      "type": "event"
    },
    {
      "anonymous": false,
      "inputs": [
        {
          "indexed": true,
          "internalType": "address",
          "name": "operator",
          "type": "address"
        },
        {
          "indexed": true,
          "internalType": "address",
          "name": "from",
          "type": "address"
        },
        {
          "indexed": true,
          "internalType": "address",
          "name": "to",
          "type": "address"
        },
        {
          "indexed": false,
          "internalType": "uint256",
          "name": "id",
          "type": "uint256"
        },
        {
          "indexed": false,
          "internalType": "uint256",
          "name": "value",
          "type": "uint256"
        }
      ],
      "name": "TransferSingle",
      "type": "event"
    },
    {
      "anonymous": false,
      "inputs": [
        {
          "indexed": false,
          "internalType": "string",
          "name": "value",
          "type": "string"
        },
        {
          "indexed": true,
          "internalType": "uint256",
          "name": "id",
          "type": "uint256"
        }
      ],
      "name": "URI",
      "type": "event"
    },
    {
      "inputs": [
        {
          "internalType": "address",
          "name": "account",
          "type": "address"
        },
        {
          "internalType": "uint256",
          "name": "id",
          "type": "uint256"
        }
      ],
      "name": "balanceOf",
      "outputs": [
        {
          "internalType": "uint256",
          "name": "",
          "type": "uint256"
        }
      ],
      "stateMutability": "view",
      "type": "function"
    },
    {
      "inputs": [
        {
          "internalType": "address[]",
          "name": "accounts",
          "type": "address[]"
        },
        {
          "internalType": "uint256[]",
          "name": "ids",
          "type": "uint256[]"
        }
      ],
      "name": "balanceOfBatch",
      "outputs": [
        {
          "internalType": "uint256[]",
          "name": "",
          "type": "uint256[]"
        }
      ],
      "stateMutability": "view",
      "type": "function"
    },
    {
      "inputs": [
        {
          "internalType": "uint256",
          "name": "_id",
          "type": "uint256"
        },
        {
          "internalType": "uint256",
          "name": "_amount",
          "type": "uint256"
        },
        {
          "internalType": "address",
          "name": "_address",
          "type": "address"
        }
      ],
      "name": "buyToken",
      "outputs": [],
      "stateMutability": "payable",
      "type": "function"
    },
    {
      "inputs": [
        {
          "internalType": "address",
          "name": "_owner",
          "type": "address"
        },
        {
          "internalType": "uint256",
          "name": "_id",
          "type": "uint256"
        }
      ],
      "name": "checkBalance",
      "outputs": [
        {
          "internalType": "uint256",
          "name": "",
          "type": "uint256"
        }
      ],
      "stateMutability": "view",
      "type": "function"
    },
    {
      "inputs": [],
      "name": "getTokens",
      "outputs": [
        {
          "components": [
            {
              "internalType": "string",
              "name": "name",
              "type": "string"
            },
            {
              "internalType": "uint256",
              "name": "supply",
              "type": "uint256"
            }
          ],
          "internalType": "struct MyTokens.Token[]",
          "name": "",
          "type": "tuple[]"
        }
      ],
      "stateMutability": "view",
      "type": "function"
    },
    {
      "inputs": [
        {
          "internalType": "address",
          "name": "account",
          "type": "address"
        },
        {
          "internalType": "address",
          "name": "operator",
          "type": "address"
        }
      ],
      "name": "isApprovedForAll",
      "outputs": [
        {
          "internalType": "bool",
          "name": "",
          "type": "bool"
        }
      ],
      "stateMutability": "view",
      "type": "function"
    },
    {
      "inputs": [
        {
          "internalType": "address",
          "name": "from",
          "type": "address"
        },
        {
          "internalType": "address",
          "name": "to",
          "type": "address"
        },
        {
          "internalType": "uint256[]",
          "name": "ids",
          "type": "uint256[]"
        },
        {
          "internalType": "uint256[]",
          "name": "amounts",
          "type": "uint256[]"
        },
        {
          "internalType": "bytes",
          "name": "data",
          "type": "bytes"
        }
      ],
      "name": "safeBatchTransferFrom",
      "outputs": [],
      "stateMutability": "nonpayable",
      "type": "function"
    },
    {
      "inputs": [
        {
          "internalType": "address",
          "name": "from",
          "type": "address"
        },
        {
          "internalType": "address",
          "name": "to",
          "type": "address"
        },
        {
          "internalType": "uint256",
          "name": "id",
          "type": "uint256"
        },
        {
          "internalType": "uint256",
          "name": "amount",
          "type": "uint256"
        },
        {
          "internalType": "bytes",
          "name": "data",
          "type": "bytes"
        }
      ],
      "name": "safeTransferFrom",
      "outputs": [],
      "stateMutability": "nonpayable",
      "type": "function"
    },
    {
      "inputs": [
        {
          "internalType": "address",
          "name": "operator",
          "type": "address"
        },
        {
          "internalType": "bool",
          "name": "approved",
          "type": "bool"
        }
      ],
      "name": "setApprovalForAll",
      "outputs": [],
      "stateMutability": "nonpayable",
      "type": "function"
    },
    {
      "inputs": [
        {
          "internalType": "bytes4",
          "name": "interfaceId",
          "type": "bytes4"
        }
      ],
      "name": "supportsInterface",
      "outputs": [
        {
          "internalType": "bool",
          "name": "",
          "type": "bool"
        }
      ],
      "stateMutability": "view",
      "type": "function"
    },
    {
      "inputs": [
        {
          "internalType": "uint256",
          "name": "_id1",
          "type": "uint256"
        },
        {
          "internalType": "uint256",
          "name": "_id2",
          "type": "uint256"
        },
        {
          "internalType": "uint256",
          "name": "_amountOfId1",
          "type": "uint256"
        },
        {
          "internalType": "address",
          "name": "_add",
          "type": "address"
        }
      ],
      "name": "swapToken",
      "outputs": [],
      "stateMutability": "payable",
      "type": "function"
    },
    {
      "inputs": [
        {
          "internalType": "uint256",
          "name": "",
          "type": "uint256"
        }
      ],
      "name": "tokenEquivalenceOfSingleEther",
      "outputs": [
        {
          "internalType": "uint256",
          "name": "",
          "type": "uint256"
        }
      ],
      "stateMutability": "view",
      "type": "function"
    },
    {
      "inputs": [
        {
          "internalType": "uint256",
          "name": "tokenId",
          "type": "uint256"
        },
        {
          "internalType": "uint256",
          "name": "amount",
          "type": "uint256"
        }
      ],
      "name": "tokenToEquivalentWei",
      "outputs": [
        {
          "internalType": "uint256",
          "name": "",
          "type": "uint256"
        }
      ],
      "stateMutability": "view",
      "type": "function"
    },
    {
      "inputs": [
        {
          "internalType": "uint256",
          "name": "_id1",
          "type": "uint256"
        },
        {
          "internalType": "uint256",
          "name": "_id2",
          "type": "uint256"
        }
      ],
      "name": "tokenToEther",
      "outputs": [
        {
          "internalType": "uint256",
          "name": "",
          "type": "uint256"
        }
      ],
      "stateMutability": "view",
      "type": "function"
    },
    {
      "inputs": [
        {
          "internalType": "uint256",
          "name": "",
          "type": "uint256"
        }
      ],
      "name": "tokens",
      "outputs": [
        {
          "internalType": "string",
          "name": "name",
          "type": "string"
        },
        {
          "internalType": "uint256",
          "name": "supply",
          "type": "uint256"
        }
      ],
      "stateMutability": "view",
      "type": "function"
    },
    {
      "inputs": [
        {
          "internalType": "uint256",
          "name": "",
          "type": "uint256"
        }
      ],
      "name": "uri",
      "outputs": [
        {
          "internalType": "string",
          "name": "",
          "type": "string"
        }
      ],
      "stateMutability": "view",
      "type": "function"
    }
  ],
  "bytecode": "0x608060405260646003553480156200001657600080fd5b50604051620044553803806200445583398181016040528101906200003c919062000aec565b6040518060600160405280602781526020016200442e6027913962000067816200021360201b60201c565b50815183511480156200007b575081518151145b620000bd576040517f08c379a0000000000000000000000000000000000000000000000000000000008152600401620000b49062000c52565b60405180910390fd5b60005b8351811015620002095760046040518060400160405280868481518110620000ed57620000ec62000c74565b5b6020026020010151815260200185848151811062000110576200010f62000c74565b5b6020026020010151815250908060018154018082558091505060019003906000526020600020906002020160009091909190915060008201518160000190805190602001906200016292919062000692565b50602082015181600101555050620001af33828584815181106200018b576200018a62000c74565b5b6020026020010151604051806020016040528060008152506200022f60201b60201c565b6005828281518110620001c757620001c662000c74565b5b6020026020010151908060018154018082558091505060019003906000526020600020016000909190919091505580620002019062000cd2565b9050620000c0565b50505050620012c1565b80600290805190602001906200022b92919062000692565b5050565b600073ffffffffffffffffffffffffffffffffffffffff168473ffffffffffffffffffffffffffffffffffffffff161415620002a2576040517f08c379a0000000000000000000000000000000000000000000000000000000008152600401620002999062000d96565b60405180910390fd5b6000620002b4620003f460201b60201c565b9050620002ed81600087620002cf88620003fc60201b60201c565b620002e088620003fc60201b60201c565b876200047d60201b60201c565b8260008086815260200190815260200160002060008773ffffffffffffffffffffffffffffffffffffffff1673ffffffffffffffffffffffffffffffffffffffff16815260200190815260200160002060008282546200034e919062000db8565b925050819055508473ffffffffffffffffffffffffffffffffffffffff16600073ffffffffffffffffffffffffffffffffffffffff168273ffffffffffffffffffffffffffffffffffffffff167fc3d58168c5ae7397731d063d5bbf3d657854427343f4c083240f7aacaa2d0f628787604051620003ce92919062000e26565b60405180910390a4620003ed816000878787876200048560201b60201c565b5050505050565b600033905090565b60606000600167ffffffffffffffff8111156200041e576200041d6200076c565b5b6040519080825280602002602001820160405280156200044d5781602001602082028036833780820191505090505b509050828160008151811062000468576200046762000c74565b5b60200260200101818152505080915050919050565b505050505050565b620004b18473ffffffffffffffffffffffffffffffffffffffff166200067f60201b62000dca1760201c565b1562000677578373ffffffffffffffffffffffffffffffffffffffff1663f23a6e6187878686866040518663ffffffff1660e01b8152600401620004fa95949392919062000ef5565b6020604051808303816000875af19250505080156200053957506040513d601f19601f8201168201806040525081019062000536919062000fb6565b60015b620005eb576200054862000ff5565b806308c379a01415620005ac5750620005606200101a565b806200056d5750620005ae565b806040517f08c379a0000000000000000000000000000000000000000000000000000000008152600401620005a3919062001108565b60405180910390fd5b505b6040517f08c379a0000000000000000000000000000000000000000000000000000000008152600401620005e290620011a2565b60405180910390fd5b63f23a6e6160e01b7bffffffffffffffffffffffffffffffffffffffffffffffffffffffff1916817bffffffffffffffffffffffffffffffffffffffffffffffffffffffff19161462000675576040517f08c379a00000000000000000000000000000000000000000000000000000000081526004016200066c906200123a565b60405180910390fd5b505b505050505050565b600080823b905060008111915050919050565b828054620006a0906200128b565b90600052602060002090601f016020900481019282620006c4576000855562000710565b82601f10620006df57805160ff191683800117855562000710565b8280016001018555821562000710579182015b828111156200070f578251825591602001919060010190620006f2565b5b5090506200071f919062000723565b5090565b5b808211156200073e57600081600090555060010162000724565b5090565b6000604051905090565b600080fd5b600080fd5b600080fd5b6000601f19601f8301169050919050565b7f4e487b7100000000000000000000000000000000000000000000000000000000600052604160045260246000fd5b620007a6826200075b565b810181811067ffffffffffffffff82111715620007c857620007c76200076c565b5b80604052505050565b6000620007dd62000742565b9050620007eb82826200079b565b919050565b600067ffffffffffffffff8211156200080e576200080d6200076c565b5b602082029050602081019050919050565b600080fd5b600080fd5b600067ffffffffffffffff8211156200084757620008466200076c565b5b62000852826200075b565b9050602081019050919050565b60005b838110156200087f57808201518184015260208101905062000862565b838111156200088f576000848401525b50505050565b6000620008ac620008a68462000829565b620007d1565b905082815260208101848484011115620008cb57620008ca62000824565b5b620008d88482856200085f565b509392505050565b600082601f830112620008f857620008f762000756565b5b81516200090a84826020860162000895565b91505092915050565b60006200092a6200092484620007f0565b620007d1565b9050808382526020820190506020840283018581111562000950576200094f6200081f565b5b835b818110156200099e57805167ffffffffffffffff81111562000979576200097862000756565b5b808601620009888982620008e0565b8552602085019450505060208101905062000952565b5050509392505050565b600082601f830112620009c057620009bf62000756565b5b8151620009d284826020860162000913565b91505092915050565b600067ffffffffffffffff821115620009f957620009f86200076c565b5b602082029050602081019050919050565b6000819050919050565b62000a1f8162000a0a565b811462000a2b57600080fd5b50565b60008151905062000a3f8162000a14565b92915050565b600062000a5c62000a5684620009db565b620007d1565b9050808382526020820190506020840283018581111562000a825762000a816200081f565b5b835b8181101562000aaf578062000a9a888262000a2e565b84526020840193505060208101905062000a84565b5050509392505050565b600082601f83011262000ad15762000ad062000756565b5b815162000ae384826020860162000a45565b91505092915050565b60008060006060848603121562000b085762000b076200074c565b5b600084015167ffffffffffffffff81111562000b295762000b2862000751565b5b62000b3786828701620009a8565b935050602084015167ffffffffffffffff81111562000b5b5762000b5a62000751565b5b62000b698682870162000ab9565b925050604084015167ffffffffffffffff81111562000b8d5762000b8c62000751565b5b62000b9b8682870162000ab9565b9150509250925092565b600082825260208201905092915050565b7f596f75206d7573742070726f7669646520657175616c206e756d62657273206f60008201527f66206e616d652c20746f6b656e537570706c69657320616e642065717569766160208201527f6c656e7450726963650000000000000000000000000000000000000000000000604082015250565b600062000c3a60498362000ba5565b915062000c478262000bb6565b606082019050919050565b6000602082019050818103600083015262000c6d8162000c2b565b9050919050565b7f4e487b7100000000000000000000000000000000000000000000000000000000600052603260045260246000fd5b7f4e487b7100000000000000000000000000000000000000000000000000000000600052601160045260246000fd5b600062000cdf8262000a0a565b91507fffffffffffffffffffffffffffffffffffffffffffffffffffffffffffffffff82141562000d155762000d1462000ca3565b5b600182019050919050565b7f455243313135353a206d696e7420746f20746865207a65726f2061646472657360008201527f7300000000000000000000000000000000000000000000000000000000000000602082015250565b600062000d7e60218362000ba5565b915062000d8b8262000d20565b604082019050919050565b6000602082019050818103600083015262000db18162000d6f565b9050919050565b600062000dc58262000a0a565b915062000dd28362000a0a565b9250827fffffffffffffffffffffffffffffffffffffffffffffffffffffffffffffffff0382111562000e0a5762000e0962000ca3565b5b828201905092915050565b62000e208162000a0a565b82525050565b600060408201905062000e3d600083018562000e15565b62000e4c602083018462000e15565b9392505050565b600073ffffffffffffffffffffffffffffffffffffffff82169050919050565b600062000e808262000e53565b9050919050565b62000e928162000e73565b82525050565b600081519050919050565b600082825260208201905092915050565b600062000ec18262000e98565b62000ecd818562000ea3565b935062000edf8185602086016200085f565b62000eea816200075b565b840191505092915050565b600060a08201905062000f0c600083018862000e87565b62000f1b602083018762000e87565b62000f2a604083018662000e15565b62000f39606083018562000e15565b818103608083015262000f4d818462000eb4565b90509695505050505050565b60007fffffffff0000000000000000000000000000000000000000000000000000000082169050919050565b62000f908162000f59565b811462000f9c57600080fd5b50565b60008151905062000fb08162000f85565b92915050565b60006020828403121562000fcf5762000fce6200074c565b5b600062000fdf8482850162000f9f565b91505092915050565b60008160e01c9050919050565b600060033d1115620010175760046000803e6200101460005162000fe8565b90505b90565b600060443d10156200102c57620010b9565b6200103662000742565b60043d036004823e80513d602482011167ffffffffffffffff8211171562001060575050620010b9565b808201805167ffffffffffffffff811115620010805750505050620010b9565b80602083010160043d0385018111156200109f575050505050620010b9565b620010b0826020018501866200079b565b82955050505050505b90565b600081519050919050565b6000620010d482620010bc565b620010e0818562000ba5565b9350620010f28185602086016200085f565b620010fd816200075b565b840191505092915050565b60006020820190508181036000830152620011248184620010c7565b905092915050565b7f455243313135353a207472616e7366657220746f206e6f6e204552433131353560008201527f526563656976657220696d706c656d656e746572000000000000000000000000602082015250565b60006200118a60348362000ba5565b915062001197826200112c565b604082019050919050565b60006020820190508181036000830152620011bd816200117b565b9050919050565b7f455243313135353a204552433131353552656365697665722072656a6563746560008201527f6420746f6b656e73000000000000000000000000000000000000000000000000602082015250565b60006200122260288362000ba5565b91506200122f82620011c4565b604082019050919050565b60006020820190508181036000830152620012558162001213565b9050919050565b7f4e487b7100000000000000000000000000000000000000000000000000000000600052602260045260246000fd5b60006002820490506001821680620012a457607f821691505b60208210811415620012bb57620012ba6200125c565b5b50919050565b61315d80620012d16000396000f3fe6080604052600436106100f25760003560e01c8063531c09311161008a578063aa6ca80811610059578063aa6ca8081461038b578063b65ade91146103b6578063e985e9c5146103d2578063f242432a1461040f576100f2565b8063531c0931146102ab5780637091e410146102e85780638bcfd50014610325578063a22cb46514610362576100f2565b80632eb2c2d6116100c65780632eb2c2d6146101ca5780634d7b9bd5146101f35780634e1273f4146102305780634f64b2be1461026d576100f2565b8062fdd58e146100f757806301ffc9a7146101345780630e89341c1461017157806321466eb5146101ae575b600080fd5b34801561010357600080fd5b5061011e60048036038101906101199190611b04565b610438565b60405161012b9190611b53565b60405180910390f35b34801561014057600080fd5b5061015b60048036038101906101569190611bc6565b610501565b6040516101689190611c0e565b60405180910390f35b34801561017d57600080fd5b5061019860048036038101906101939190611c29565b6105e3565b6040516101a59190611cef565b60405180910390f35b6101c860048036038101906101c39190611d11565b610677565b005b3480156101d657600080fd5b506101f160048036038101906101ec9190611f61565b610756565b005b3480156101ff57600080fd5b5061021a60048036038101906102159190611b04565b6107f7565b6040516102279190611b53565b60405180910390f35b34801561023c57600080fd5b50610257600480360381019061025291906120f3565b61080b565b6040516102649190612229565b60405180910390f35b34801561027957600080fd5b50610294600480360381019061028f9190611c29565b610924565b6040516102a292919061224b565b60405180910390f35b3480156102b757600080fd5b506102d260048036038101906102cd919061227b565b6109e0565b6040516102df9190611b53565b60405180910390f35b3480156102f457600080fd5b5061030f600480360381019061030a9190611c29565b610a58565b60405161031c9190611b53565b60405180910390f35b34801561033157600080fd5b5061034c6004803603810190610347919061227b565b610a7c565b6040516103599190611b53565b60405180910390f35b34801561036e57600080fd5b50610389600480360381019061038491906122e7565b610a84565b005b34801561039757600080fd5b506103a0610a9a565b6040516103ad9190612470565b60405180910390f35b6103d060048036038101906103cb9190612492565b610b95565b005b3480156103de57600080fd5b506103f960048036038101906103f491906124f9565b610c95565b6040516104069190611c0e565b60405180910390f35b34801561041b57600080fd5b5061043660048036038101906104319190612539565b610d29565b005b60008073ffffffffffffffffffffffffffffffffffffffff168373ffffffffffffffffffffffffffffffffffffffff1614156104a9576040517f08c379a00000000000000000000000000000000000000000000000000000000081526004016104a090612642565b60405180910390fd5b60008083815260200190815260200160002060008473ffffffffffffffffffffffffffffffffffffffff1673ffffffffffffffffffffffffffffffffffffffff16815260200190815260200160002054905092915050565b60007fd9b67a26000000000000000000000000000000000000000000000000000000007bffffffffffffffffffffffffffffffffffffffffffffffffffffffff1916827bffffffffffffffffffffffffffffffffffffffffffffffffffffffff191614806105cc57507f0e89341c000000000000000000000000000000000000000000000000000000007bffffffffffffffffffffffffffffffffffffffffffffffffffffffff1916827bffffffffffffffffffffffffffffffffffffffffffffffffffffffff1916145b806105dc57506105db82610ddd565b5b9050919050565b6060600280546105f290612691565b80601f016020809104026020016040519081016040528092919081815260200182805461061e90612691565b801561066b5780601f106106405761010080835404028352916020019161066b565b820191906000526020600020905b81548152906001019060200180831161064e57829003601f168201915b50505050509050919050565b60006003548361068791906126f2565b9050600081116106cc576040517f08c379a00000000000000000000000000000000000000000000000000000000081526004016106c390612798565b60405180910390fd5b600484815481106106e0576106df6127b8565b5b906000526020600020906002020160010154811115610734576040517f08c379a000000000000000000000000000000000000000000000000000000000815260040161072b90612859565b60405180910390fd5b6107503383868660405180602001604052806000815250610d29565b50505050565b61075e610e47565b73ffffffffffffffffffffffffffffffffffffffff168573ffffffffffffffffffffffffffffffffffffffff1614806107a457506107a38561079e610e47565b610c95565b5b6107e3576040517f08c379a00000000000000000000000000000000000000000000000000000000081526004016107da906128eb565b60405180910390fd5b6107f08585858585610e4f565b5050505050565b60006108038383610438565b905092915050565b60608151835114610851576040517f08c379a00000000000000000000000000000000000000000000000000000000081526004016108489061297d565b60405180910390fd5b6000835167ffffffffffffffff81111561086e5761086d611d69565b5b60405190808252806020026020018201604052801561089c5781602001602082028036833780820191505090505b50905060005b8451811015610919576108e98582815181106108c1576108c06127b8565b5b60200260200101518583815181106108dc576108db6127b8565b5b6020026020010151610438565b8282815181106108fc576108fb6127b8565b5b602002602001018181525050806109129061299d565b90506108a2565b508091505092915050565b6004818154811061093457600080fd5b906000526020600020906002020160009150905080600001805461095790612691565b80601f016020809104026020016040519081016040528092919081815260200182805461098390612691565b80156109d05780601f106109a5576101008083540402835291602001916109d0565b820191906000526020600020905b8154815290600101906020018083116109b357829003601f168201915b5050505050908060010154905082565b6000670de0b6b3a7640000826109f691906126f2565b9150600060058481548110610a0e57610a0d6127b8565b5b906000526020600020015490506000610a30828561116390919063ffffffff16565b9050610a3b84611179565b610a4482611179565b610a4d81611179565b809250505092915050565b60058181548110610a6857600080fd5b906000526020600020016000915090505481565b600092915050565b610a96610a8f610e47565b8383611212565b5050565b60606004805480602002602001604051908101604052809291908181526020016000905b82821015610b8c5783829060005260206000209060020201604051806040016040529081600082018054610af190612691565b80601f0160208091040260200160405190810160405280929190818152602001828054610b1d90612691565b8015610b6a5780601f10610b3f57610100808354040283529160200191610b6a565b820191906000526020600020905b815481529060010190602001808311610b4d57829003601f168201915b5050505050815260200160018201548152505081526020019060010190610abe565b50505050905090565b6000610be660058581548110610bae57610bad6127b8565b5b906000526020600020015460058781548110610bcd57610bcc6127b8565b5b906000526020600020015461116390919063ffffffff16565b905060006003541415610bfc5760016003819055505b6000610c4d60058781548110610c1557610c146127b8565b5b906000526020600020015460058781548110610c3457610c336127b8565b5b906000526020600020015461116390919063ffffffff16565b905060008285610c5d91906126f2565b905060008286610c6d91906126f2565b9050610c8b33868a8560405180602001604052806000815250610d29565b5050505050505050565b6000600160008473ffffffffffffffffffffffffffffffffffffffff1673ffffffffffffffffffffffffffffffffffffffff16815260200190815260200160002060008373ffffffffffffffffffffffffffffffffffffffff1673ffffffffffffffffffffffffffffffffffffffff16815260200190815260200160002060009054906101000a900460ff16905092915050565b610d31610e47565b73ffffffffffffffffffffffffffffffffffffffff168573ffffffffffffffffffffffffffffffffffffffff161480610d775750610d7685610d71610e47565b610c95565b5b610db6576040517f08c379a0000000000000000000000000000000000000000000000000000000008152600401610dad90612a58565b60405180910390fd5b610dc3858585858561137f565b5050505050565b600080823b905060008111915050919050565b60007f01ffc9a7000000000000000000000000000000000000000000000000000000007bffffffffffffffffffffffffffffffffffffffffffffffffffffffff1916827bffffffffffffffffffffffffffffffffffffffffffffffffffffffff1916149050919050565b600033905090565b8151835114610e93576040517f08c379a0000000000000000000000000000000000000000000000000000000008152600401610e8a90612aea565b60405180910390fd5b600073ffffffffffffffffffffffffffffffffffffffff168473ffffffffffffffffffffffffffffffffffffffff161415610f03576040517f08c379a0000000000000000000000000000000000000000000000000000000008152600401610efa90612b7c565b60405180910390fd5b6000610f0d610e47565b9050610f1d818787878787611601565b60005b84518110156110ce576000858281518110610f3e57610f3d6127b8565b5b602002602001015190506000858381518110610f5d57610f5c6127b8565b5b60200260200101519050600080600084815260200190815260200160002060008b73ffffffffffffffffffffffffffffffffffffffff1673ffffffffffffffffffffffffffffffffffffffff16815260200190815260200160002054905081811015610ffe576040517f08c379a0000000000000000000000000000000000000000000000000000000008152600401610ff590612c0e565b60405180910390fd5b81810360008085815260200190815260200160002060008c73ffffffffffffffffffffffffffffffffffffffff1673ffffffffffffffffffffffffffffffffffffffff168152602001908152602001600020819055508160008085815260200190815260200160002060008b73ffffffffffffffffffffffffffffffffffffffff1673ffffffffffffffffffffffffffffffffffffffff16815260200190815260200160002060008282546110b39190612c2e565b92505081905550505050806110c79061299d565b9050610f20565b508473ffffffffffffffffffffffffffffffffffffffff168673ffffffffffffffffffffffffffffffffffffffff168273ffffffffffffffffffffffffffffffffffffffff167f4a39dc06d4c0dbc64b70af90fd698a233a518aa5d07e595d983b8c0526c8f7fb8787604051611145929190612c84565b60405180910390a461115b818787878787611609565b505050505050565b600081836111719190612cea565b905092915050565b61120f8160405160240161118d9190611b53565b6040516020818303038152906040527ff5b1bba9000000000000000000000000000000000000000000000000000000007bffffffffffffffffffffffffffffffffffffffffffffffffffffffff19166020820180517bffffffffffffffffffffffffffffffffffffffffffffffffffffffff83818316178352505050506117e1565b50565b8173ffffffffffffffffffffffffffffffffffffffff168373ffffffffffffffffffffffffffffffffffffffff161415611281576040517f08c379a000000000000000000000000000000000000000000000000000000000815260040161127890612d8d565b60405180910390fd5b80600160008573ffffffffffffffffffffffffffffffffffffffff1673ffffffffffffffffffffffffffffffffffffffff16815260200190815260200160002060008473ffffffffffffffffffffffffffffffffffffffff1673ffffffffffffffffffffffffffffffffffffffff16815260200190815260200160002060006101000a81548160ff0219169083151502179055508173ffffffffffffffffffffffffffffffffffffffff168373ffffffffffffffffffffffffffffffffffffffff167f17307eab39ab6107e8899845ad3d59bd9653f200f220920489ca2b5937696c31836040516113729190611c0e565b60405180910390a3505050565b600073ffffffffffffffffffffffffffffffffffffffff168473ffffffffffffffffffffffffffffffffffffffff1614156113ef576040517f08c379a00000000000000000000000000000000000000000000000000000000081526004016113e690612b7c565b60405180910390fd5b60006113f9610e47565b905061141981878761140a8861180a565b6114138861180a565b87611601565b600080600086815260200190815260200160002060008873ffffffffffffffffffffffffffffffffffffffff1673ffffffffffffffffffffffffffffffffffffffff168152602001908152602001600020549050838110156114b0576040517f08c379a00000000000000000000000000000000000000000000000000000000081526004016114a790612c0e565b60405180910390fd5b83810360008087815260200190815260200160002060008973ffffffffffffffffffffffffffffffffffffffff1673ffffffffffffffffffffffffffffffffffffffff168152602001908152602001600020819055508360008087815260200190815260200160002060008873ffffffffffffffffffffffffffffffffffffffff1673ffffffffffffffffffffffffffffffffffffffff16815260200190815260200160002060008282546115659190612c2e565b925050819055508573ffffffffffffffffffffffffffffffffffffffff168773ffffffffffffffffffffffffffffffffffffffff168373ffffffffffffffffffffffffffffffffffffffff167fc3d58168c5ae7397731d063d5bbf3d657854427343f4c083240f7aacaa2d0f6288886040516115e2929190612dad565b60405180910390a46115f8828888888888611884565b50505050505050565b505050505050565b6116288473ffffffffffffffffffffffffffffffffffffffff16610dca565b156117d9578373ffffffffffffffffffffffffffffffffffffffff1663bc197c8187878686866040518663ffffffff1660e01b815260040161166e959493929190612e3a565b6020604051808303816000875af19250505080156116aa57506040513d601f19601f820116820180604052508101906116a79190612eb7565b60015b611750576116b6612ef1565b806308c379a0141561171357506116cb612f13565b806116d65750611715565b806040517f08c379a000000000000000000000000000000000000000000000000000000000815260040161170a9190611cef565b60405180910390fd5b505b6040517f08c379a00000000000000000000000000000000000000000000000000000000081526004016117479061301b565b60405180910390fd5b63bc197c8160e01b7bffffffffffffffffffffffffffffffffffffffffffffffffffffffff1916817bffffffffffffffffffffffffffffffffffffffffffffffffffffffff1916146117d7576040517f08c379a00000000000000000000000000000000000000000000000000000000081526004016117ce906130ad565b60405180910390fd5b505b505050505050565b60008151905060006a636f6e736f6c652e6c6f679050602083016000808483855afa5050505050565b60606000600167ffffffffffffffff81111561182957611828611d69565b5b6040519080825280602002602001820160405280156118575781602001602082028036833780820191505090505b509050828160008151811061186f5761186e6127b8565b5b60200260200101818152505080915050919050565b6118a38473ffffffffffffffffffffffffffffffffffffffff16610dca565b15611a54578373ffffffffffffffffffffffffffffffffffffffff1663f23a6e6187878686866040518663ffffffff1660e01b81526004016118e99594939291906130cd565b6020604051808303816000875af192505050801561192557506040513d601f19601f820116820180604052508101906119229190612eb7565b60015b6119cb57611931612ef1565b806308c379a0141561198e5750611946612f13565b806119515750611990565b806040517f08c379a00000000000000000000000000000000000000000000000000000000081526004016119859190611cef565b60405180910390fd5b505b6040517f08c379a00000000000000000000000000000000000000000000000000000000081526004016119c29061301b565b60405180910390fd5b63f23a6e6160e01b7bffffffffffffffffffffffffffffffffffffffffffffffffffffffff1916817bffffffffffffffffffffffffffffffffffffffffffffffffffffffff191614611a52576040517f08c379a0000000000000000000000000000000000000000000000000000000008152600401611a49906130ad565b60405180910390fd5b505b505050505050565b6000604051905090565b600080fd5b600080fd5b600073ffffffffffffffffffffffffffffffffffffffff82169050919050565b6000611a9b82611a70565b9050919050565b611aab81611a90565b8114611ab657600080fd5b50565b600081359050611ac881611aa2565b92915050565b6000819050919050565b611ae181611ace565b8114611aec57600080fd5b50565b600081359050611afe81611ad8565b92915050565b60008060408385031215611b1b57611b1a611a66565b5b6000611b2985828601611ab9565b9250506020611b3a85828601611aef565b9150509250929050565b611b4d81611ace565b82525050565b6000602082019050611b686000830184611b44565b92915050565b60007fffffffff0000000000000000000000000000000000000000000000000000000082169050919050565b611ba381611b6e565b8114611bae57600080fd5b50565b600081359050611bc081611b9a565b92915050565b600060208284031215611bdc57611bdb611a66565b5b6000611bea84828501611bb1565b91505092915050565b60008115159050919050565b611c0881611bf3565b82525050565b6000602082019050611c236000830184611bff565b92915050565b600060208284031215611c3f57611c3e611a66565b5b6000611c4d84828501611aef565b91505092915050565b600081519050919050565b600082825260208201905092915050565b60005b83811015611c90578082015181840152602081019050611c75565b83811115611c9f576000848401525b50505050565b6000601f19601f8301169050919050565b6000611cc182611c56565b611ccb8185611c61565b9350611cdb818560208601611c72565b611ce481611ca5565b840191505092915050565b60006020820190508181036000830152611d098184611cb6565b905092915050565b600080600060608486031215611d2a57611d29611a66565b5b6000611d3886828701611aef565b9350506020611d4986828701611aef565b9250506040611d5a86828701611ab9565b9150509250925092565b600080fd5b7f4e487b7100000000000000000000000000000000000000000000000000000000600052604160045260246000fd5b611da182611ca5565b810181811067ffffffffffffffff82111715611dc057611dbf611d69565b5b80604052505050565b6000611dd3611a5c565b9050611ddf8282611d98565b919050565b600067ffffffffffffffff821115611dff57611dfe611d69565b5b602082029050602081019050919050565b600080fd5b6000611e28611e2384611de4565b611dc9565b90508083825260208201905060208402830185811115611e4b57611e4a611e10565b5b835b81811015611e745780611e608882611aef565b845260208401935050602081019050611e4d565b5050509392505050565b600082601f830112611e9357611e92611d64565b5b8135611ea3848260208601611e15565b91505092915050565b600080fd5b600067ffffffffffffffff821115611ecc57611ecb611d69565b5b611ed582611ca5565b9050602081019050919050565b82818337600083830152505050565b6000611f04611eff84611eb1565b611dc9565b905082815260208101848484011115611f2057611f1f611eac565b5b611f2b848285611ee2565b509392505050565b600082601f830112611f4857611f47611d64565b5b8135611f58848260208601611ef1565b91505092915050565b600080600080600060a08688031215611f7d57611f7c611a66565b5b6000611f8b88828901611ab9565b9550506020611f9c88828901611ab9565b945050604086013567ffffffffffffffff811115611fbd57611fbc611a6b565b5b611fc988828901611e7e565b935050606086013567ffffffffffffffff811115611fea57611fe9611a6b565b5b611ff688828901611e7e565b925050608086013567ffffffffffffffff81111561201757612016611a6b565b5b61202388828901611f33565b9150509295509295909350565b600067ffffffffffffffff82111561204b5761204a611d69565b5b602082029050602081019050919050565b600061206f61206a84612030565b611dc9565b9050808382526020820190506020840283018581111561209257612091611e10565b5b835b818110156120bb57806120a78882611ab9565b845260208401935050602081019050612094565b5050509392505050565b600082601f8301126120da576120d9611d64565b5b81356120ea84826020860161205c565b91505092915050565b6000806040838503121561210a57612109611a66565b5b600083013567ffffffffffffffff81111561212857612127611a6b565b5b612134858286016120c5565b925050602083013567ffffffffffffffff81111561215557612154611a6b565b5b61216185828601611e7e565b9150509250929050565b600081519050919050565b600082825260208201905092915050565b6000819050602082019050919050565b6121a081611ace565b82525050565b60006121b28383612197565b60208301905092915050565b6000602082019050919050565b60006121d68261216b565b6121e08185612176565b93506121eb83612187565b8060005b8381101561221c57815161220388826121a6565b975061220e836121be565b9250506001810190506121ef565b5085935050505092915050565b6000602082019050818103600083015261224381846121cb565b905092915050565b600060408201905081810360008301526122658185611cb6565b90506122746020830184611b44565b9392505050565b6000806040838503121561229257612291611a66565b5b60006122a085828601611aef565b92505060206122b185828601611aef565b9150509250929050565b6122c481611bf3565b81146122cf57600080fd5b50565b6000813590506122e1816122bb565b92915050565b600080604083850312156122fe576122fd611a66565b5b600061230c85828601611ab9565b925050602061231d858286016122d2565b9150509250929050565b600081519050919050565b600082825260208201905092915050565b6000819050602082019050919050565b600082825260208201905092915050565b600061236f82611c56565b6123798185612353565b9350612389818560208601611c72565b61239281611ca5565b840191505092915050565b600060408301600083015184820360008601526123ba8282612364565b91505060208301516123cf6020860182612197565b508091505092915050565b60006123e6838361239d565b905092915050565b6000602082019050919050565b600061240682612327565b6124108185612332565b93508360208202850161242285612343565b8060005b8581101561245e578484038952815161243f85826123da565b945061244a836123ee565b925060208a01995050600181019050612426565b50829750879550505050505092915050565b6000602082019050818103600083015261248a81846123fb565b905092915050565b600080600080608085870312156124ac576124ab611a66565b5b60006124ba87828801611aef565b94505060206124cb87828801611aef565b93505060406124dc87828801611aef565b92505060606124ed87828801611ab9565b91505092959194509250565b600080604083850312156125105761250f611a66565b5b600061251e85828601611ab9565b925050602061252f85828601611ab9565b9150509250929050565b600080600080600060a0868803121561255557612554611a66565b5b600061256388828901611ab9565b955050602061257488828901611ab9565b945050604061258588828901611aef565b935050606061259688828901611aef565b925050608086013567ffffffffffffffff8111156125b7576125b6611a6b565b5b6125c388828901611f33565b9150509295509295909350565b7f455243313135353a2062616c616e636520717565727920666f7220746865207a60008201527f65726f2061646472657373000000000000000000000000000000000000000000602082015250565b600061262c602b83611c61565b9150612637826125d0565b604082019050919050565b6000602082019050818103600083015261265b8161261f565b9050919050565b7f4e487b7100000000000000000000000000000000000000000000000000000000600052602260045260246000fd5b600060028204905060018216806126a957607f821691505b602082108114156126bd576126bc612662565b5b50919050565b7f4e487b7100000000000000000000000000000000000000000000000000000000600052601160045260246000fd5b60006126fd82611ace565b915061270883611ace565b9250817fffffffffffffffffffffffffffffffffffffffffffffffffffffffffffffffff0483118215151615612741576127406126c3565b5b828202905092915050565b7f596f75206d75737420627579206174206c65617374203120746f6b656e000000600082015250565b6000612782601d83611c61565b915061278d8261274c565b602082019050919050565b600060208201905081810360008301526127b181612775565b9050919050565b7f4e487b7100000000000000000000000000000000000000000000000000000000600052603260045260246000fd5b7f596f752063616e277420627579206d6f7265207468616e20746865207375707060008201527f6c79000000000000000000000000000000000000000000000000000000000000602082015250565b6000612843602283611c61565b915061284e826127e7565b604082019050919050565b6000602082019050818103600083015261287281612836565b9050919050565b7f455243313135353a207472616e736665722063616c6c6572206973206e6f742060008201527f6f776e6572206e6f7220617070726f7665640000000000000000000000000000602082015250565b60006128d5603283611c61565b91506128e082612879565b604082019050919050565b60006020820190508181036000830152612904816128c8565b9050919050565b7f455243313135353a206163636f756e747320616e6420696473206c656e67746860008201527f206d69736d617463680000000000000000000000000000000000000000000000602082015250565b6000612967602983611c61565b91506129728261290b565b604082019050919050565b600060208201905081810360008301526129968161295a565b9050919050565b60006129a882611ace565b91507fffffffffffffffffffffffffffffffffffffffffffffffffffffffffffffffff8214156129db576129da6126c3565b5b600182019050919050565b7f455243313135353a2063616c6c6572206973206e6f74206f776e6572206e6f7260008201527f20617070726f7665640000000000000000000000000000000000000000000000602082015250565b6000612a42602983611c61565b9150612a4d826129e6565b604082019050919050565b60006020820190508181036000830152612a7181612a35565b9050919050565b7f455243313135353a2069647320616e6420616d6f756e7473206c656e6774682060008201527f6d69736d61746368000000000000000000000000000000000000000000000000602082015250565b6000612ad4602883611c61565b9150612adf82612a78565b604082019050919050565b60006020820190508181036000830152612b0381612ac7565b9050919050565b7f455243313135353a207472616e7366657220746f20746865207a65726f20616460008201527f6472657373000000000000000000000000000000000000000000000000000000602082015250565b6000612b66602583611c61565b9150612b7182612b0a565b604082019050919050565b60006020820190508181036000830152612b9581612b59565b9050919050565b7f455243313135353a20696e73756666696369656e742062616c616e636520666f60008201527f72207472616e7366657200000000000000000000000000000000000000000000602082015250565b6000612bf8602a83611c61565b9150612c0382612b9c565b604082019050919050565b60006020820190508181036000830152612c2781612beb565b9050919050565b6000612c3982611ace565b9150612c4483611ace565b9250827fffffffffffffffffffffffffffffffffffffffffffffffffffffffffffffffff03821115612c7957612c786126c3565b5b828201905092915050565b60006040820190508181036000830152612c9e81856121cb565b90508181036020830152612cb281846121cb565b90509392505050565b7f4e487b7100000000000000000000000000000000000000000000000000000000600052601260045260246000fd5b6000612cf582611ace565b9150612d0083611ace565b925082612d1057612d0f612cbb565b5b828204905092915050565b7f455243313135353a2073657474696e6720617070726f76616c2073746174757360008201527f20666f722073656c660000000000000000000000000000000000000000000000602082015250565b6000612d77602983611c61565b9150612d8282612d1b565b604082019050919050565b60006020820190508181036000830152612da681612d6a565b9050919050565b6000604082019050612dc26000830185611b44565b612dcf6020830184611b44565b9392505050565b612ddf81611a90565b82525050565b600081519050919050565b600082825260208201905092915050565b6000612e0c82612de5565b612e168185612df0565b9350612e26818560208601611c72565b612e2f81611ca5565b840191505092915050565b600060a082019050612e4f6000830188612dd6565b612e5c6020830187612dd6565b8181036040830152612e6e81866121cb565b90508181036060830152612e8281856121cb565b90508181036080830152612e968184612e01565b90509695505050505050565b600081519050612eb181611b9a565b92915050565b600060208284031215612ecd57612ecc611a66565b5b6000612edb84828501612ea2565b91505092915050565b60008160e01c9050919050565b600060033d1115612f105760046000803e612f0d600051612ee4565b90505b90565b600060443d1015612f2357612fa6565b612f2b611a5c565b60043d036004823e80513d602482011167ffffffffffffffff82111715612f53575050612fa6565b808201805167ffffffffffffffff811115612f715750505050612fa6565b80602083010160043d038501811115612f8e575050505050612fa6565b612f9d82602001850186611d98565b82955050505050505b90565b7f455243313135353a207472616e7366657220746f206e6f6e204552433131353560008201527f526563656976657220696d706c656d656e746572000000000000000000000000602082015250565b6000613005603483611c61565b915061301082612fa9565b604082019050919050565b6000602082019050818103600083015261303481612ff8565b9050919050565b7f455243313135353a204552433131353552656365697665722072656a6563746560008201527f6420746f6b656e73000000000000000000000000000000000000000000000000602082015250565b6000613097602883611c61565b91506130a28261303b565b604082019050919050565b600060208201905081810360008301526130c68161308a565b9050919050565b600060a0820190506130e26000830188612dd6565b6130ef6020830187612dd6565b6130fc6040830186611b44565b6131096060830185611b44565b818103608083015261311b8184612e01565b9050969550505050505056fea2646970667358221220f66a2385d00da3ee31917b424a8454401e14a50bd74173fc982e944da935ba2664736f6c634300080b003368747470733a2f2f67616d652e6578616d706c652f6170692f6974656d2f7b69647d2e6a736f6e",
  "linkReferences": {},
  "deployedLinkReferences": {}
}