{
  "_format": "hh-sol-artifact-1",
  "contractName": "MyTokens",
  "sourceName": "hardhat/contracts/MyTokens.sol",
  "abi": [
    {
      "inputs": [
        {
          "internalType": "string[]",
          "name": "_tokenNames",
          "type": "string[]"
        },
        {
          "internalType": "uint256[]",
          "name": "_tokenSupplies",
          "type": "uint256[]"
        },
        {
          "internalType": "uint256[]",
          "name": "_tokenPriceEquivalence",
          "type": "uint256[]"
        }
      ],
      "stateMutability": "nonpayable",
      "type": "constructor"
    },
    {
      "anonymous": false,
      "inputs": [
        {
          "indexed": true,
          "internalType": "address",
          "name": "account",
          "type": "address"
        },
        {
          "indexed": true,
          "internalType": "address",
          "name": "operator",
          "type": "address"
        },
        {
          "indexed": false,
          "internalType": "bool",
          "name": "approved",
          "type": "bool"
        }
      ],
      "name": "ApprovalForAll",
      "type": "event"
    },
    {
      "anonymous": false,
      "inputs": [
        {
          "indexed": true,
          "internalType": "address",
          "name": "operator",
          "type": "address"
        },
        {
          "indexed": true,
          "internalType": "address",
          "name": "from",
          "type": "address"
        },
        {
          "indexed": true,
          "internalType": "address",
          "name": "to",
          "type": "address"
        },
        {
          "indexed": false,
          "internalType": "uint256[]",
          "name": "ids",
          "type": "uint256[]"
        },
        {
          "indexed": false,
          "internalType": "uint256[]",
          "name": "values",
          "type": "uint256[]"
        }
      ],
      "name": "TransferBatch",
      "type": "event"
    },
    {
      "anonymous": false,
      "inputs": [
        {
          "indexed": true,
          "internalType": "address",
          "name": "operator",
          "type": "address"
        },
        {
          "indexed": true,
          "internalType": "address",
          "name": "from",
          "type": "address"
        },
        {
          "indexed": true,
          "internalType": "address",
          "name": "to",
          "type": "address"
        },
        {
          "indexed": false,
          "internalType": "uint256",
          "name": "id",
          "type": "uint256"
        },
        {
          "indexed": false,
          "internalType": "uint256",
          "name": "value",
          "type": "uint256"
        }
      ],
      "name": "TransferSingle",
      "type": "event"
    },
    {
      "anonymous": false,
      "inputs": [
        {
          "indexed": false,
          "internalType": "string",
          "name": "value",
          "type": "string"
        },
        {
          "indexed": true,
          "internalType": "uint256",
          "name": "id",
          "type": "uint256"
        }
      ],
      "name": "URI",
      "type": "event"
    },
    {
      "inputs": [
        {
          "internalType": "address",
          "name": "account",
          "type": "address"
        },
        {
          "internalType": "uint256",
          "name": "id",
          "type": "uint256"
        }
      ],
      "name": "balanceOf",
      "outputs": [
        {
          "internalType": "uint256",
          "name": "",
          "type": "uint256"
        }
      ],
      "stateMutability": "view",
      "type": "function"
    },
    {
      "inputs": [
        {
          "internalType": "address[]",
          "name": "accounts",
          "type": "address[]"
        },
        {
          "internalType": "uint256[]",
          "name": "ids",
          "type": "uint256[]"
        }
      ],
      "name": "balanceOfBatch",
      "outputs": [
        {
          "internalType": "uint256[]",
          "name": "",
          "type": "uint256[]"
        }
      ],
      "stateMutability": "view",
      "type": "function"
    },
    {
      "inputs": [
        {
          "internalType": "uint256",
          "name": "_id",
          "type": "uint256"
        },
        {
          "internalType": "uint256",
          "name": "_amount",
          "type": "uint256"
        },
        {
          "internalType": "address",
          "name": "_address",
          "type": "address"
        }
      ],
      "name": "buyToken",
      "outputs": [],
      "stateMutability": "payable",
      "type": "function"
    },
    {
      "inputs": [
        {
          "internalType": "address",
          "name": "_owner",
          "type": "address"
        },
        {
          "internalType": "uint256",
          "name": "_id",
          "type": "uint256"
        }
      ],
      "name": "checkBalance",
      "outputs": [
        {
          "internalType": "uint256",
          "name": "",
          "type": "uint256"
        }
      ],
      "stateMutability": "view",
      "type": "function"
    },
    {
      "inputs": [],
      "name": "getTokens",
      "outputs": [
        {
          "components": [
            {
              "internalType": "string",
              "name": "name",
              "type": "string"
            },
            {
              "internalType": "uint256",
              "name": "supply",
              "type": "uint256"
            }
          ],
          "internalType": "struct MyTokens.Token[]",
          "name": "",
          "type": "tuple[]"
        }
      ],
      "stateMutability": "view",
      "type": "function"
    },
    {
      "inputs": [
        {
          "internalType": "address",
          "name": "account",
          "type": "address"
        },
        {
          "internalType": "address",
          "name": "operator",
          "type": "address"
        }
      ],
      "name": "isApprovedForAll",
      "outputs": [
        {
          "internalType": "bool",
          "name": "",
          "type": "bool"
        }
      ],
      "stateMutability": "view",
      "type": "function"
    },
    {
      "inputs": [
        {
          "internalType": "address",
          "name": "from",
          "type": "address"
        },
        {
          "internalType": "address",
          "name": "to",
          "type": "address"
        },
        {
          "internalType": "uint256[]",
          "name": "ids",
          "type": "uint256[]"
        },
        {
          "internalType": "uint256[]",
          "name": "amounts",
          "type": "uint256[]"
        },
        {
          "internalType": "bytes",
          "name": "data",
          "type": "bytes"
        }
      ],
      "name": "safeBatchTransferFrom",
      "outputs": [],
      "stateMutability": "nonpayable",
      "type": "function"
    },
    {
      "inputs": [
        {
          "internalType": "address",
          "name": "from",
          "type": "address"
        },
        {
          "internalType": "address",
          "name": "to",
          "type": "address"
        },
        {
          "internalType": "uint256",
          "name": "id",
          "type": "uint256"
        },
        {
          "internalType": "uint256",
          "name": "amount",
          "type": "uint256"
        },
        {
          "internalType": "bytes",
          "name": "data",
          "type": "bytes"
        }
      ],
      "name": "safeTransferFrom",
      "outputs": [],
      "stateMutability": "nonpayable",
      "type": "function"
    },
    {
      "inputs": [
        {
          "internalType": "address",
          "name": "operator",
          "type": "address"
        },
        {
          "internalType": "bool",
          "name": "approved",
          "type": "bool"
        }
      ],
      "name": "setApprovalForAll",
      "outputs": [],
      "stateMutability": "nonpayable",
      "type": "function"
    },
    {
      "inputs": [
        {
          "internalType": "bytes4",
          "name": "interfaceId",
          "type": "bytes4"
        }
      ],
      "name": "supportsInterface",
      "outputs": [
        {
          "internalType": "bool",
          "name": "",
          "type": "bool"
        }
      ],
      "stateMutability": "view",
      "type": "function"
    },
    {
      "inputs": [
        {
          "internalType": "uint256",
          "name": "_id1",
          "type": "uint256"
        },
        {
          "internalType": "uint256",
          "name": "_id2",
          "type": "uint256"
        },
        {
          "internalType": "uint256",
          "name": "_amountOfId1",
          "type": "uint256"
        },
        {
          "internalType": "address",
          "name": "_add",
          "type": "address"
        }
      ],
      "name": "swapToken",
      "outputs": [],
      "stateMutability": "payable",
      "type": "function"
    },
    {
      "inputs": [
        {
          "internalType": "uint256",
          "name": "",
          "type": "uint256"
        }
      ],
      "name": "tokenEquivalenceOfSingleEther",
      "outputs": [
        {
          "internalType": "uint256",
          "name": "",
          "type": "uint256"
        }
      ],
      "stateMutability": "view",
      "type": "function"
    },
    {
      "inputs": [
        {
          "internalType": "uint256",
          "name": "tokenId",
          "type": "uint256"
        },
        {
          "internalType": "uint256",
          "name": "amount",
          "type": "uint256"
        }
      ],
      "name": "tokenToEquivalentWei",
      "outputs": [
        {
          "internalType": "uint256",
          "name": "",
          "type": "uint256"
        }
      ],
      "stateMutability": "view",
      "type": "function"
    },
    {
      "inputs": [
        {
          "internalType": "uint256",
          "name": "_id1",
          "type": "uint256"
        },
        {
          "internalType": "uint256",
          "name": "_id2",
          "type": "uint256"
        }
      ],
      "name": "tokenToEther",
      "outputs": [
        {
          "internalType": "uint256",
          "name": "",
          "type": "uint256"
        }
      ],
      "stateMutability": "view",
      "type": "function"
    },
    {
      "inputs": [
        {
          "internalType": "uint256",
          "name": "",
          "type": "uint256"
        }
      ],
      "name": "tokens",
      "outputs": [
        {
          "internalType": "string",
          "name": "name",
          "type": "string"
        },
        {
          "internalType": "uint256",
          "name": "supply",
          "type": "uint256"
        }
      ],
      "stateMutability": "view",
      "type": "function"
    },
    {
      "inputs": [
        {
          "internalType": "uint256",
          "name": "",
          "type": "uint256"
        }
      ],
      "name": "uri",
      "outputs": [
        {
          "internalType": "string",
          "name": "",
          "type": "string"
        }
      ],
      "stateMutability": "view",
      "type": "function"
    }
  ],
  "bytecode": "0x608060405260646003553480156200001657600080fd5b50604051620045733803806200457383398181016040528101906200003c919062000aec565b6040518060600160405280602781526020016200454c6027913962000067816200021360201b60201c565b50815183511480156200007b575081518151145b620000bd576040517f08c379a0000000000000000000000000000000000000000000000000000000008152600401620000b49062000c52565b60405180910390fd5b60005b8351811015620002095760046040518060400160405280868481518110620000ed57620000ec62000c74565b5b6020026020010151815260200185848151811062000110576200010f62000c74565b5b6020026020010151815250908060018154018082558091505060019003906000526020600020906002020160009091909190915060008201518160000190805190602001906200016292919062000692565b50602082015181600101555050620001af33828584815181106200018b576200018a62000c74565b5b6020026020010151604051806020016040528060008152506200022f60201b60201c565b6005828281518110620001c757620001c662000c74565b5b6020026020010151908060018154018082558091505060019003906000526020600020016000909190919091505580620002019062000cd2565b9050620000c0565b50505050620012c1565b80600290805190602001906200022b92919062000692565b5050565b600073ffffffffffffffffffffffffffffffffffffffff168473ffffffffffffffffffffffffffffffffffffffff161415620002a2576040517f08c379a0000000000000000000000000000000000000000000000000000000008152600401620002999062000d96565b60405180910390fd5b6000620002b4620003f460201b60201c565b9050620002ed81600087620002cf88620003fc60201b60201c565b620002e088620003fc60201b60201c565b876200047d60201b60201c565b8260008086815260200190815260200160002060008773ffffffffffffffffffffffffffffffffffffffff1673ffffffffffffffffffffffffffffffffffffffff16815260200190815260200160002060008282546200034e919062000db8565b925050819055508473ffffffffffffffffffffffffffffffffffffffff16600073ffffffffffffffffffffffffffffffffffffffff168273ffffffffffffffffffffffffffffffffffffffff167fc3d58168c5ae7397731d063d5bbf3d657854427343f4c083240f7aacaa2d0f628787604051620003ce92919062000e26565b60405180910390a4620003ed816000878787876200048560201b60201c565b5050505050565b600033905090565b60606000600167ffffffffffffffff8111156200041e576200041d6200076c565b5b6040519080825280602002602001820160405280156200044d5781602001602082028036833780820191505090505b509050828160008151811062000468576200046762000c74565b5b60200260200101818152505080915050919050565b505050505050565b620004b18473ffffffffffffffffffffffffffffffffffffffff166200067f60201b62000e391760201c565b1562000677578373ffffffffffffffffffffffffffffffffffffffff1663f23a6e6187878686866040518663ffffffff1660e01b8152600401620004fa95949392919062000ef5565b6020604051808303816000875af19250505080156200053957506040513d601f19601f8201168201806040525081019062000536919062000fb6565b60015b620005eb576200054862000ff5565b806308c379a01415620005ac5750620005606200101a565b806200056d5750620005ae565b806040517f08c379a0000000000000000000000000000000000000000000000000000000008152600401620005a3919062001108565b60405180910390fd5b505b6040517f08c379a0000000000000000000000000000000000000000000000000000000008152600401620005e290620011a2565b60405180910390fd5b63f23a6e6160e01b7bffffffffffffffffffffffffffffffffffffffffffffffffffffffff1916817bffffffffffffffffffffffffffffffffffffffffffffffffffffffff19161462000675576040517f08c379a00000000000000000000000000000000000000000000000000000000081526004016200066c906200123a565b60405180910390fd5b505b505050505050565b600080823b905060008111915050919050565b828054620006a0906200128b565b90600052602060002090601f016020900481019282620006c4576000855562000710565b82601f10620006df57805160ff191683800117855562000710565b8280016001018555821562000710579182015b828111156200070f578251825591602001919060010190620006f2565b5b5090506200071f919062000723565b5090565b5b808211156200073e57600081600090555060010162000724565b5090565b6000604051905090565b600080fd5b600080fd5b600080fd5b6000601f19601f8301169050919050565b7f4e487b7100000000000000000000000000000000000000000000000000000000600052604160045260246000fd5b620007a6826200075b565b810181811067ffffffffffffffff82111715620007c857620007c76200076c565b5b80604052505050565b6000620007dd62000742565b9050620007eb82826200079b565b919050565b600067ffffffffffffffff8211156200080e576200080d6200076c565b5b602082029050602081019050919050565b600080fd5b600080fd5b600067ffffffffffffffff8211156200084757620008466200076c565b5b62000852826200075b565b9050602081019050919050565b60005b838110156200087f57808201518184015260208101905062000862565b838111156200088f576000848401525b50505050565b6000620008ac620008a68462000829565b620007d1565b905082815260208101848484011115620008cb57620008ca62000824565b5b620008d88482856200085f565b509392505050565b600082601f830112620008f857620008f762000756565b5b81516200090a84826020860162000895565b91505092915050565b60006200092a6200092484620007f0565b620007d1565b9050808382526020820190506020840283018581111562000950576200094f6200081f565b5b835b818110156200099e57805167ffffffffffffffff81111562000979576200097862000756565b5b808601620009888982620008e0565b8552602085019450505060208101905062000952565b5050509392505050565b600082601f830112620009c057620009bf62000756565b5b8151620009d284826020860162000913565b91505092915050565b600067ffffffffffffffff821115620009f957620009f86200076c565b5b602082029050602081019050919050565b6000819050919050565b62000a1f8162000a0a565b811462000a2b57600080fd5b50565b60008151905062000a3f8162000a14565b92915050565b600062000a5c62000a5684620009db565b620007d1565b9050808382526020820190506020840283018581111562000a825762000a816200081f565b5b835b8181101562000aaf578062000a9a888262000a2e565b84526020840193505060208101905062000a84565b5050509392505050565b600082601f83011262000ad15762000ad062000756565b5b815162000ae384826020860162000a45565b91505092915050565b60008060006060848603121562000b085762000b076200074c565b5b600084015167ffffffffffffffff81111562000b295762000b2862000751565b5b62000b3786828701620009a8565b935050602084015167ffffffffffffffff81111562000b5b5762000b5a62000751565b5b62000b698682870162000ab9565b925050604084015167ffffffffffffffff81111562000b8d5762000b8c62000751565b5b62000b9b8682870162000ab9565b9150509250925092565b600082825260208201905092915050565b7f596f75206d7573742070726f7669646520657175616c206e756d62657273206f60008201527f66206e616d652c20746f6b656e537570706c69657320616e642065717569766160208201527f6c656e7450726963650000000000000000000000000000000000000000000000604082015250565b600062000c3a60498362000ba5565b915062000c478262000bb6565b606082019050919050565b6000602082019050818103600083015262000c6d8162000c2b565b9050919050565b7f4e487b7100000000000000000000000000000000000000000000000000000000600052603260045260246000fd5b7f4e487b7100000000000000000000000000000000000000000000000000000000600052601160045260246000fd5b600062000cdf8262000a0a565b91507fffffffffffffffffffffffffffffffffffffffffffffffffffffffffffffffff82141562000d155762000d1462000ca3565b5b600182019050919050565b7f455243313135353a206d696e7420746f20746865207a65726f2061646472657360008201527f7300000000000000000000000000000000000000000000000000000000000000602082015250565b600062000d7e60218362000ba5565b915062000d8b8262000d20565b604082019050919050565b6000602082019050818103600083015262000db18162000d6f565b9050919050565b600062000dc58262000a0a565b915062000dd28362000a0a565b9250827fffffffffffffffffffffffffffffffffffffffffffffffffffffffffffffffff0382111562000e0a5762000e0962000ca3565b5b828201905092915050565b62000e208162000a0a565b82525050565b600060408201905062000e3d600083018562000e15565b62000e4c602083018462000e15565b9392505050565b600073ffffffffffffffffffffffffffffffffffffffff82169050919050565b600062000e808262000e53565b9050919050565b62000e928162000e73565b82525050565b600081519050919050565b600082825260208201905092915050565b600062000ec18262000e98565b62000ecd818562000ea3565b935062000edf8185602086016200085f565b62000eea816200075b565b840191505092915050565b600060a08201905062000f0c600083018862000e87565b62000f1b602083018762000e87565b62000f2a604083018662000e15565b62000f39606083018562000e15565b818103608083015262000f4d818462000eb4565b90509695505050505050565b60007fffffffff0000000000000000000000000000000000000000000000000000000082169050919050565b62000f908162000f59565b811462000f9c57600080fd5b50565b60008151905062000fb08162000f85565b92915050565b60006020828403121562000fcf5762000fce6200074c565b5b600062000fdf8482850162000f9f565b91505092915050565b60008160e01c9050919050565b600060033d1115620010175760046000803e6200101460005162000fe8565b90505b90565b600060443d10156200102c57620010b9565b6200103662000742565b60043d036004823e80513d602482011167ffffffffffffffff8211171562001060575050620010b9565b808201805167ffffffffffffffff811115620010805750505050620010b9565b80602083010160043d0385018111156200109f575050505050620010b9565b620010b0826020018501866200079b565b82955050505050505b90565b600081519050919050565b6000620010d482620010bc565b620010e0818562000ba5565b9350620010f28185602086016200085f565b620010fd816200075b565b840191505092915050565b60006020820190508181036000830152620011248184620010c7565b905092915050565b7f455243313135353a207472616e7366657220746f206e6f6e204552433131353560008201527f526563656976657220696d706c656d656e746572000000000000000000000000602082015250565b60006200118a60348362000ba5565b915062001197826200112c565b604082019050919050565b60006020820190508181036000830152620011bd816200117b565b9050919050565b7f455243313135353a204552433131353552656365697665722072656a6563746560008201527f6420746f6b656e73000000000000000000000000000000000000000000000000602082015250565b60006200122260288362000ba5565b91506200122f82620011c4565b604082019050919050565b60006020820190508181036000830152620012558162001213565b9050919050565b7f4e487b7100000000000000000000000000000000000000000000000000000000600052602260045260246000fd5b60006002820490506001821680620012a457607f821691505b60208210811415620012bb57620012ba6200125c565b5b50919050565b61327b80620012d16000396000f3fe6080604052600436106100f25760003560e01c8063531c09311161008a578063aa6ca80811610059578063aa6ca8081461038b578063b65ade91146103b6578063e985e9c5146103d2578063f242432a1461040f576100f2565b8063531c0931146102ab5780637091e410146102e85780638bcfd50014610325578063a22cb46514610362576100f2565b80632eb2c2d6116100c65780632eb2c2d6146101ca5780634d7b9bd5146101f35780634e1273f4146102305780634f64b2be1461026d576100f2565b8062fdd58e146100f757806301ffc9a7146101345780630e89341c1461017157806321466eb5146101ae575b600080fd5b34801561010357600080fd5b5061011e60048036038101906101199190611c22565b610438565b60405161012b9190611c71565b60405180910390f35b34801561014057600080fd5b5061015b60048036038101906101569190611ce4565b610501565b6040516101689190611d2c565b60405180910390f35b34801561017d57600080fd5b5061019860048036038101906101939190611d47565b6105e3565b6040516101a59190611e0d565b60405180910390f35b6101c860048036038101906101c39190611e2f565b610677565b005b3480156101d657600080fd5b506101f160048036038101906101ec919061207f565b610756565b005b3480156101ff57600080fd5b5061021a60048036038101906102159190611c22565b6107f7565b6040516102279190611c71565b60405180910390f35b34801561023c57600080fd5b5061025760048036038101906102529190612211565b61080b565b6040516102649190612347565b60405180910390f35b34801561027957600080fd5b50610294600480360381019061028f9190611d47565b610924565b6040516102a2929190612369565b60405180910390f35b3480156102b757600080fd5b506102d260048036038101906102cd9190612399565b6109e0565b6040516102df9190611c71565b60405180910390f35b3480156102f457600080fd5b5061030f600480360381019061030a9190611d47565b610a58565b60405161031c9190611c71565b60405180910390f35b34801561033157600080fd5b5061034c60048036038101906103479190612399565b610a7c565b6040516103599190611c71565b60405180910390f35b34801561036e57600080fd5b5061038960048036038101906103849190612405565b610a84565b005b34801561039757600080fd5b506103a0610a9a565b6040516103ad919061258e565b60405180910390f35b6103d060048036038101906103cb91906125b0565b610b95565b005b3480156103de57600080fd5b506103f960048036038101906103f49190612617565b610d04565b6040516104069190611d2c565b60405180910390f35b34801561041b57600080fd5b5061043660048036038101906104319190612657565b610d98565b005b60008073ffffffffffffffffffffffffffffffffffffffff168373ffffffffffffffffffffffffffffffffffffffff1614156104a9576040517f08c379a00000000000000000000000000000000000000000000000000000000081526004016104a090612760565b60405180910390fd5b60008083815260200190815260200160002060008473ffffffffffffffffffffffffffffffffffffffff1673ffffffffffffffffffffffffffffffffffffffff16815260200190815260200160002054905092915050565b60007fd9b67a26000000000000000000000000000000000000000000000000000000007bffffffffffffffffffffffffffffffffffffffffffffffffffffffff1916827bffffffffffffffffffffffffffffffffffffffffffffffffffffffff191614806105cc57507f0e89341c000000000000000000000000000000000000000000000000000000007bffffffffffffffffffffffffffffffffffffffffffffffffffffffff1916827bffffffffffffffffffffffffffffffffffffffffffffffffffffffff1916145b806105dc57506105db82610e4c565b5b9050919050565b6060600280546105f2906127af565b80601f016020809104026020016040519081016040528092919081815260200182805461061e906127af565b801561066b5780601f106106405761010080835404028352916020019161066b565b820191906000526020600020905b81548152906001019060200180831161064e57829003601f168201915b50505050509050919050565b6000600354836106879190612810565b9050600081116106cc576040517f08c379a00000000000000000000000000000000000000000000000000000000081526004016106c3906128b6565b60405180910390fd5b600484815481106106e0576106df6128d6565b5b906000526020600020906002020160010154811115610734576040517f08c379a000000000000000000000000000000000000000000000000000000000815260040161072b90612977565b60405180910390fd5b6107503383868660405180602001604052806000815250610d98565b50505050565b61075e610eb6565b73ffffffffffffffffffffffffffffffffffffffff168573ffffffffffffffffffffffffffffffffffffffff1614806107a457506107a38561079e610eb6565b610d04565b5b6107e3576040517f08c379a00000000000000000000000000000000000000000000000000000000081526004016107da90612a09565b60405180910390fd5b6107f08585858585610ebe565b5050505050565b60006108038383610438565b905092915050565b60608151835114610851576040517f08c379a000000000000000000000000000000000000000000000000000000000815260040161084890612a9b565b60405180910390fd5b6000835167ffffffffffffffff81111561086e5761086d611e87565b5b60405190808252806020026020018201604052801561089c5781602001602082028036833780820191505090505b50905060005b8451811015610919576108e98582815181106108c1576108c06128d6565b5b60200260200101518583815181106108dc576108db6128d6565b5b6020026020010151610438565b8282815181106108fc576108fb6128d6565b5b6020026020010181815250508061091290612abb565b90506108a2565b508091505092915050565b6004818154811061093457600080fd5b9060005260206000209060020201600091509050806000018054610957906127af565b80601f0160208091040260200160405190810160405280929190818152602001828054610983906127af565b80156109d05780601f106109a5576101008083540402835291602001916109d0565b820191906000526020600020905b8154815290600101906020018083116109b357829003601f168201915b5050505050908060010154905082565b6000670de0b6b3a7640000826109f69190612810565b9150600060058481548110610a0e57610a0d6128d6565b5b906000526020600020015490506000610a3082856111d290919063ffffffff16565b9050610a3b846111e8565b610a44826111e8565b610a4d816111e8565b809250505092915050565b60058181548110610a6857600080fd5b906000526020600020016000915090505481565b600092915050565b610a96610a8f610eb6565b8383611281565b5050565b60606004805480602002602001604051908101604052809291908181526020016000905b82821015610b8c5783829060005260206000209060020201604051806040016040529081600082018054610af1906127af565b80601f0160208091040260200160405190810160405280929190818152602001828054610b1d906127af565b8015610b6a5780601f10610b3f57610100808354040283529160200191610b6a565b820191906000526020600020905b815481529060010190602001808311610b4d57829003601f168201915b5050505050815260200160018201548152505081526020019060010190610abe565b50505050905090565b6000610be660058581548110610bae57610bad6128d6565b5b906000526020600020015460058781548110610bcd57610bcc6128d6565b5b90600052602060002001546111d290919063ffffffff16565b90506000811415610bf657600190505b6000610c4760058781548110610c0f57610c0e6128d6565b5b906000526020600020015460058781548110610c2e57610c2d6128d6565b5b90600052602060002001546111d290919063ffffffff16565b90506000610c5e83866113ee90919063ffffffff16565b905060008286610c6e9190612810565b9050610c79826111e8565b610cb76040518060400160405280600481526020017f6865686500000000000000000000000000000000000000000000000000000000815250611404565b610cc2856001610a84565b610cde33868a8560405180602001604052806000815250610d98565b610cfa8533898460405180602001604052806000815250610d98565b5050505050505050565b6000600160008473ffffffffffffffffffffffffffffffffffffffff1673ffffffffffffffffffffffffffffffffffffffff16815260200190815260200160002060008373ffffffffffffffffffffffffffffffffffffffff1673ffffffffffffffffffffffffffffffffffffffff16815260200190815260200160002060009054906101000a900460ff16905092915050565b610da0610eb6565b73ffffffffffffffffffffffffffffffffffffffff168573ffffffffffffffffffffffffffffffffffffffff161480610de65750610de585610de0610eb6565b610d04565b5b610e25576040517f08c379a0000000000000000000000000000000000000000000000000000000008152600401610e1c90612b76565b60405180910390fd5b610e32858585858561149d565b5050505050565b600080823b905060008111915050919050565b60007f01ffc9a7000000000000000000000000000000000000000000000000000000007bffffffffffffffffffffffffffffffffffffffffffffffffffffffff1916827bffffffffffffffffffffffffffffffffffffffffffffffffffffffff1916149050919050565b600033905090565b8151835114610f02576040517f08c379a0000000000000000000000000000000000000000000000000000000008152600401610ef990612c08565b60405180910390fd5b600073ffffffffffffffffffffffffffffffffffffffff168473ffffffffffffffffffffffffffffffffffffffff161415610f72576040517f08c379a0000000000000000000000000000000000000000000000000000000008152600401610f6990612c9a565b60405180910390fd5b6000610f7c610eb6565b9050610f8c81878787878761171f565b60005b845181101561113d576000858281518110610fad57610fac6128d6565b5b602002602001015190506000858381518110610fcc57610fcb6128d6565b5b60200260200101519050600080600084815260200190815260200160002060008b73ffffffffffffffffffffffffffffffffffffffff1673ffffffffffffffffffffffffffffffffffffffff1681526020019081526020016000205490508181101561106d576040517f08c379a000000000000000000000000000000000000000000000000000000000815260040161106490612d2c565b60405180910390fd5b81810360008085815260200190815260200160002060008c73ffffffffffffffffffffffffffffffffffffffff1673ffffffffffffffffffffffffffffffffffffffff168152602001908152602001600020819055508160008085815260200190815260200160002060008b73ffffffffffffffffffffffffffffffffffffffff1673ffffffffffffffffffffffffffffffffffffffff16815260200190815260200160002060008282546111229190612d4c565b925050819055505050508061113690612abb565b9050610f8f565b508473ffffffffffffffffffffffffffffffffffffffff168673ffffffffffffffffffffffffffffffffffffffff168273ffffffffffffffffffffffffffffffffffffffff167f4a39dc06d4c0dbc64b70af90fd698a233a518aa5d07e595d983b8c0526c8f7fb87876040516111b4929190612da2565b60405180910390a46111ca818787878787611727565b505050505050565b600081836111e09190612e08565b905092915050565b61127e816040516024016111fc9190611c71565b6040516020818303038152906040527ff5b1bba9000000000000000000000000000000000000000000000000000000007bffffffffffffffffffffffffffffffffffffffffffffffffffffffff19166020820180517bffffffffffffffffffffffffffffffffffffffffffffffffffffffff83818316178352505050506118ff565b50565b8173ffffffffffffffffffffffffffffffffffffffff168373ffffffffffffffffffffffffffffffffffffffff1614156112f0576040517f08c379a00000000000000000000000000000000000000000000000000000000081526004016112e790612eab565b60405180910390fd5b80600160008573ffffffffffffffffffffffffffffffffffffffff1673ffffffffffffffffffffffffffffffffffffffff16815260200190815260200160002060008473ffffffffffffffffffffffffffffffffffffffff1673ffffffffffffffffffffffffffffffffffffffff16815260200190815260200160002060006101000a81548160ff0219169083151502179055508173ffffffffffffffffffffffffffffffffffffffff168373ffffffffffffffffffffffffffffffffffffffff167f17307eab39ab6107e8899845ad3d59bd9653f200f220920489ca2b5937696c31836040516113e19190611d2c565b60405180910390a3505050565b600081836113fc9190612810565b905092915050565b61149a816040516024016114189190611e0d565b6040516020818303038152906040527f41304fac000000000000000000000000000000000000000000000000000000007bffffffffffffffffffffffffffffffffffffffffffffffffffffffff19166020820180517bffffffffffffffffffffffffffffffffffffffffffffffffffffffff83818316178352505050506118ff565b50565b600073ffffffffffffffffffffffffffffffffffffffff168473ffffffffffffffffffffffffffffffffffffffff16141561150d576040517f08c379a000000000000000000000000000000000000000000000000000000000815260040161150490612c9a565b60405180910390fd5b6000611517610eb6565b905061153781878761152888611928565b61153188611928565b8761171f565b600080600086815260200190815260200160002060008873ffffffffffffffffffffffffffffffffffffffff1673ffffffffffffffffffffffffffffffffffffffff168152602001908152602001600020549050838110156115ce576040517f08c379a00000000000000000000000000000000000000000000000000000000081526004016115c590612d2c565b60405180910390fd5b83810360008087815260200190815260200160002060008973ffffffffffffffffffffffffffffffffffffffff1673ffffffffffffffffffffffffffffffffffffffff168152602001908152602001600020819055508360008087815260200190815260200160002060008873ffffffffffffffffffffffffffffffffffffffff1673ffffffffffffffffffffffffffffffffffffffff16815260200190815260200160002060008282546116839190612d4c565b925050819055508573ffffffffffffffffffffffffffffffffffffffff168773ffffffffffffffffffffffffffffffffffffffff168373ffffffffffffffffffffffffffffffffffffffff167fc3d58168c5ae7397731d063d5bbf3d657854427343f4c083240f7aacaa2d0f628888604051611700929190612ecb565b60405180910390a46117168288888888886119a2565b50505050505050565b505050505050565b6117468473ffffffffffffffffffffffffffffffffffffffff16610e39565b156118f7578373ffffffffffffffffffffffffffffffffffffffff1663bc197c8187878686866040518663ffffffff1660e01b815260040161178c959493929190612f58565b6020604051808303816000875af19250505080156117c857506040513d601f19601f820116820180604052508101906117c59190612fd5565b60015b61186e576117d461300f565b806308c379a0141561183157506117e9613031565b806117f45750611833565b806040517f08c379a00000000000000000000000000000000000000000000000000000000081526004016118289190611e0d565b60405180910390fd5b505b6040517f08c379a000000000000000000000000000000000000000000000000000000000815260040161186590613139565b60405180910390fd5b63bc197c8160e01b7bffffffffffffffffffffffffffffffffffffffffffffffffffffffff1916817bffffffffffffffffffffffffffffffffffffffffffffffffffffffff1916146118f5576040517f08c379a00000000000000000000000000000000000000000000000000000000081526004016118ec906131cb565b60405180910390fd5b505b505050505050565b60008151905060006a636f6e736f6c652e6c6f679050602083016000808483855afa5050505050565b60606000600167ffffffffffffffff81111561194757611946611e87565b5b6040519080825280602002602001820160405280156119755781602001602082028036833780820191505090505b509050828160008151811061198d5761198c6128d6565b5b60200260200101818152505080915050919050565b6119c18473ffffffffffffffffffffffffffffffffffffffff16610e39565b15611b72578373ffffffffffffffffffffffffffffffffffffffff1663f23a6e6187878686866040518663ffffffff1660e01b8152600401611a079594939291906131eb565b6020604051808303816000875af1925050508015611a4357506040513d601f19601f82011682018060405250810190611a409190612fd5565b60015b611ae957611a4f61300f565b806308c379a01415611aac5750611a64613031565b80611a6f5750611aae565b806040517f08c379a0000000000000000000000000000000000000000000000000000000008152600401611aa39190611e0d565b60405180910390fd5b505b6040517f08c379a0000000000000000000000000000000000000000000000000000000008152600401611ae090613139565b60405180910390fd5b63f23a6e6160e01b7bffffffffffffffffffffffffffffffffffffffffffffffffffffffff1916817bffffffffffffffffffffffffffffffffffffffffffffffffffffffff191614611b70576040517f08c379a0000000000000000000000000000000000000000000000000000000008152600401611b67906131cb565b60405180910390fd5b505b505050505050565b6000604051905090565b600080fd5b600080fd5b600073ffffffffffffffffffffffffffffffffffffffff82169050919050565b6000611bb982611b8e565b9050919050565b611bc981611bae565b8114611bd457600080fd5b50565b600081359050611be681611bc0565b92915050565b6000819050919050565b611bff81611bec565b8114611c0a57600080fd5b50565b600081359050611c1c81611bf6565b92915050565b60008060408385031215611c3957611c38611b84565b5b6000611c4785828601611bd7565b9250506020611c5885828601611c0d565b9150509250929050565b611c6b81611bec565b82525050565b6000602082019050611c866000830184611c62565b92915050565b60007fffffffff0000000000000000000000000000000000000000000000000000000082169050919050565b611cc181611c8c565b8114611ccc57600080fd5b50565b600081359050611cde81611cb8565b92915050565b600060208284031215611cfa57611cf9611b84565b5b6000611d0884828501611ccf565b91505092915050565b60008115159050919050565b611d2681611d11565b82525050565b6000602082019050611d416000830184611d1d565b92915050565b600060208284031215611d5d57611d5c611b84565b5b6000611d6b84828501611c0d565b91505092915050565b600081519050919050565b600082825260208201905092915050565b60005b83811015611dae578082015181840152602081019050611d93565b83811115611dbd576000848401525b50505050565b6000601f19601f8301169050919050565b6000611ddf82611d74565b611de98185611d7f565b9350611df9818560208601611d90565b611e0281611dc3565b840191505092915050565b60006020820190508181036000830152611e278184611dd4565b905092915050565b600080600060608486031215611e4857611e47611b84565b5b6000611e5686828701611c0d565b9350506020611e6786828701611c0d565b9250506040611e7886828701611bd7565b9150509250925092565b600080fd5b7f4e487b7100000000000000000000000000000000000000000000000000000000600052604160045260246000fd5b611ebf82611dc3565b810181811067ffffffffffffffff82111715611ede57611edd611e87565b5b80604052505050565b6000611ef1611b7a565b9050611efd8282611eb6565b919050565b600067ffffffffffffffff821115611f1d57611f1c611e87565b5b602082029050602081019050919050565b600080fd5b6000611f46611f4184611f02565b611ee7565b90508083825260208201905060208402830185811115611f6957611f68611f2e565b5b835b81811015611f925780611f7e8882611c0d565b845260208401935050602081019050611f6b565b5050509392505050565b600082601f830112611fb157611fb0611e82565b5b8135611fc1848260208601611f33565b91505092915050565b600080fd5b600067ffffffffffffffff821115611fea57611fe9611e87565b5b611ff382611dc3565b9050602081019050919050565b82818337600083830152505050565b600061202261201d84611fcf565b611ee7565b90508281526020810184848401111561203e5761203d611fca565b5b612049848285612000565b509392505050565b600082601f83011261206657612065611e82565b5b813561207684826020860161200f565b91505092915050565b600080600080600060a0868803121561209b5761209a611b84565b5b60006120a988828901611bd7565b95505060206120ba88828901611bd7565b945050604086013567ffffffffffffffff8111156120db576120da611b89565b5b6120e788828901611f9c565b935050606086013567ffffffffffffffff81111561210857612107611b89565b5b61211488828901611f9c565b925050608086013567ffffffffffffffff81111561213557612134611b89565b5b61214188828901612051565b9150509295509295909350565b600067ffffffffffffffff82111561216957612168611e87565b5b602082029050602081019050919050565b600061218d6121888461214e565b611ee7565b905080838252602082019050602084028301858111156121b0576121af611f2e565b5b835b818110156121d957806121c58882611bd7565b8452602084019350506020810190506121b2565b5050509392505050565b600082601f8301126121f8576121f7611e82565b5b813561220884826020860161217a565b91505092915050565b6000806040838503121561222857612227611b84565b5b600083013567ffffffffffffffff81111561224657612245611b89565b5b612252858286016121e3565b925050602083013567ffffffffffffffff81111561227357612272611b89565b5b61227f85828601611f9c565b9150509250929050565b600081519050919050565b600082825260208201905092915050565b6000819050602082019050919050565b6122be81611bec565b82525050565b60006122d083836122b5565b60208301905092915050565b6000602082019050919050565b60006122f482612289565b6122fe8185612294565b9350612309836122a5565b8060005b8381101561233a57815161232188826122c4565b975061232c836122dc565b92505060018101905061230d565b5085935050505092915050565b6000602082019050818103600083015261236181846122e9565b905092915050565b600060408201905081810360008301526123838185611dd4565b90506123926020830184611c62565b9392505050565b600080604083850312156123b0576123af611b84565b5b60006123be85828601611c0d565b92505060206123cf85828601611c0d565b9150509250929050565b6123e281611d11565b81146123ed57600080fd5b50565b6000813590506123ff816123d9565b92915050565b6000806040838503121561241c5761241b611b84565b5b600061242a85828601611bd7565b925050602061243b858286016123f0565b9150509250929050565b600081519050919050565b600082825260208201905092915050565b6000819050602082019050919050565b600082825260208201905092915050565b600061248d82611d74565b6124978185612471565b93506124a7818560208601611d90565b6124b081611dc3565b840191505092915050565b600060408301600083015184820360008601526124d88282612482565b91505060208301516124ed60208601826122b5565b508091505092915050565b600061250483836124bb565b905092915050565b6000602082019050919050565b600061252482612445565b61252e8185612450565b93508360208202850161254085612461565b8060005b8581101561257c578484038952815161255d85826124f8565b94506125688361250c565b925060208a01995050600181019050612544565b50829750879550505050505092915050565b600060208201905081810360008301526125a88184612519565b905092915050565b600080600080608085870312156125ca576125c9611b84565b5b60006125d887828801611c0d565b94505060206125e987828801611c0d565b93505060406125fa87828801611c0d565b925050606061260b87828801611bd7565b91505092959194509250565b6000806040838503121561262e5761262d611b84565b5b600061263c85828601611bd7565b925050602061264d85828601611bd7565b9150509250929050565b600080600080600060a0868803121561267357612672611b84565b5b600061268188828901611bd7565b955050602061269288828901611bd7565b94505060406126a388828901611c0d565b93505060606126b488828901611c0d565b925050608086013567ffffffffffffffff8111156126d5576126d4611b89565b5b6126e188828901612051565b9150509295509295909350565b7f455243313135353a2062616c616e636520717565727920666f7220746865207a60008201527f65726f2061646472657373000000000000000000000000000000000000000000602082015250565b600061274a602b83611d7f565b9150612755826126ee565b604082019050919050565b600060208201905081810360008301526127798161273d565b9050919050565b7f4e487b7100000000000000000000000000000000000000000000000000000000600052602260045260246000fd5b600060028204905060018216806127c757607f821691505b602082108114156127db576127da612780565b5b50919050565b7f4e487b7100000000000000000000000000000000000000000000000000000000600052601160045260246000fd5b600061281b82611bec565b915061282683611bec565b9250817fffffffffffffffffffffffffffffffffffffffffffffffffffffffffffffffff048311821515161561285f5761285e6127e1565b5b828202905092915050565b7f596f75206d75737420627579206174206c65617374203120746f6b656e000000600082015250565b60006128a0601d83611d7f565b91506128ab8261286a565b602082019050919050565b600060208201905081810360008301526128cf81612893565b9050919050565b7f4e487b7100000000000000000000000000000000000000000000000000000000600052603260045260246000fd5b7f596f752063616e277420627579206d6f7265207468616e20746865207375707060008201527f6c79000000000000000000000000000000000000000000000000000000000000602082015250565b6000612961602283611d7f565b915061296c82612905565b604082019050919050565b6000602082019050818103600083015261299081612954565b9050919050565b7f455243313135353a207472616e736665722063616c6c6572206973206e6f742060008201527f6f776e6572206e6f7220617070726f7665640000000000000000000000000000602082015250565b60006129f3603283611d7f565b91506129fe82612997565b604082019050919050565b60006020820190508181036000830152612a22816129e6565b9050919050565b7f455243313135353a206163636f756e747320616e6420696473206c656e67746860008201527f206d69736d617463680000000000000000000000000000000000000000000000602082015250565b6000612a85602983611d7f565b9150612a9082612a29565b604082019050919050565b60006020820190508181036000830152612ab481612a78565b9050919050565b6000612ac682611bec565b91507fffffffffffffffffffffffffffffffffffffffffffffffffffffffffffffffff821415612af957612af86127e1565b5b600182019050919050565b7f455243313135353a2063616c6c6572206973206e6f74206f776e6572206e6f7260008201527f20617070726f7665640000000000000000000000000000000000000000000000602082015250565b6000612b60602983611d7f565b9150612b6b82612b04565b604082019050919050565b60006020820190508181036000830152612b8f81612b53565b9050919050565b7f455243313135353a2069647320616e6420616d6f756e7473206c656e6774682060008201527f6d69736d61746368000000000000000000000000000000000000000000000000602082015250565b6000612bf2602883611d7f565b9150612bfd82612b96565b604082019050919050565b60006020820190508181036000830152612c2181612be5565b9050919050565b7f455243313135353a207472616e7366657220746f20746865207a65726f20616460008201527f6472657373000000000000000000000000000000000000000000000000000000602082015250565b6000612c84602583611d7f565b9150612c8f82612c28565b604082019050919050565b60006020820190508181036000830152612cb381612c77565b9050919050565b7f455243313135353a20696e73756666696369656e742062616c616e636520666f60008201527f72207472616e7366657200000000000000000000000000000000000000000000602082015250565b6000612d16602a83611d7f565b9150612d2182612cba565b604082019050919050565b60006020820190508181036000830152612d4581612d09565b9050919050565b6000612d5782611bec565b9150612d6283611bec565b9250827fffffffffffffffffffffffffffffffffffffffffffffffffffffffffffffffff03821115612d9757612d966127e1565b5b828201905092915050565b60006040820190508181036000830152612dbc81856122e9565b90508181036020830152612dd081846122e9565b90509392505050565b7f4e487b7100000000000000000000000000000000000000000000000000000000600052601260045260246000fd5b6000612e1382611bec565b9150612e1e83611bec565b925082612e2e57612e2d612dd9565b5b828204905092915050565b7f455243313135353a2073657474696e6720617070726f76616c2073746174757360008201527f20666f722073656c660000000000000000000000000000000000000000000000602082015250565b6000612e95602983611d7f565b9150612ea082612e39565b604082019050919050565b60006020820190508181036000830152612ec481612e88565b9050919050565b6000604082019050612ee06000830185611c62565b612eed6020830184611c62565b9392505050565b612efd81611bae565b82525050565b600081519050919050565b600082825260208201905092915050565b6000612f2a82612f03565b612f348185612f0e565b9350612f44818560208601611d90565b612f4d81611dc3565b840191505092915050565b600060a082019050612f6d6000830188612ef4565b612f7a6020830187612ef4565b8181036040830152612f8c81866122e9565b90508181036060830152612fa081856122e9565b90508181036080830152612fb48184612f1f565b90509695505050505050565b600081519050612fcf81611cb8565b92915050565b600060208284031215612feb57612fea611b84565b5b6000612ff984828501612fc0565b91505092915050565b60008160e01c9050919050565b600060033d111561302e5760046000803e61302b600051613002565b90505b90565b600060443d1015613041576130c4565b613049611b7a565b60043d036004823e80513d602482011167ffffffffffffffff821117156130715750506130c4565b808201805167ffffffffffffffff81111561308f57505050506130c4565b80602083010160043d0385018111156130ac5750505050506130c4565b6130bb82602001850186611eb6565b82955050505050505b90565b7f455243313135353a207472616e7366657220746f206e6f6e204552433131353560008201527f526563656976657220696d706c656d656e746572000000000000000000000000602082015250565b6000613123603483611d7f565b915061312e826130c7565b604082019050919050565b6000602082019050818103600083015261315281613116565b9050919050565b7f455243313135353a204552433131353552656365697665722072656a6563746560008201527f6420746f6b656e73000000000000000000000000000000000000000000000000602082015250565b60006131b5602883611d7f565b91506131c082613159565b604082019050919050565b600060208201905081810360008301526131e4816131a8565b9050919050565b600060a0820190506132006000830188612ef4565b61320d6020830187612ef4565b61321a6040830186611c62565b6132276060830185611c62565b81810360808301526132398184612f1f565b9050969550505050505056fea26469706673582212200765adecf20b45e126c2f9cbdb385b240beab00a9976a4bc73edf806c083946b64736f6c634300080b003368747470733a2f2f67616d652e6578616d706c652f6170692f6974656d2f7b69647d2e6a736f6e",
  "linkReferences": {},
  "deployedLinkReferences": {}
}