{
  "_format": "hh-sol-artifact-1",
  "contractName": "SwapTokens",
  "sourceName": "hardhat/contracts/SwapTokens.sol",
  "abi": [
    {
      "inputs": [
        {
          "internalType": "string",
          "name": "_name",
          "type": "string"
        }
      ],
      "stateMutability": "nonpayable",
      "type": "constructor"
    },
    {
      "inputs": [
        {
          "internalType": "uint256",
          "name": "",
          "type": "uint256"
        }
      ],
      "name": "allTokens",
      "outputs": [
        {
          "internalType": "string",
          "name": "",
          "type": "string"
        }
      ],
      "stateMutability": "view",
      "type": "function"
    },
    {
      "inputs": [],
      "name": "name",
      "outputs": [
        {
          "internalType": "string",
          "name": "",
          "type": "string"
        }
      ],
      "stateMutability": "view",
      "type": "function"
    }
  ],
  "bytecode": "0x60806040526040518060400160405280600781526020017f4574685377617000000000000000000000000000000000000000000000000000815250600090805190602001906200005192919062000137565b5060405180604001604052806040518060400160405280600381526020017f455448000000000000000000000000000000000000000000000000000000000081525081526020016040518060400160405280600581526020017f544f4b454e0000000000000000000000000000000000000000000000000000008152508152506001906002620000e3929190620001c8565b50348015620000f157600080fd5b506040516200089c3803806200089c833981810160405281019062000117919062000459565b80600090805190602001906200012f92919062000137565b50506200050f565b8280546200014590620004d9565b90600052602060002090601f016020900481019282620001695760008555620001b5565b82601f106200018457805160ff1916838001178555620001b5565b82800160010185558215620001b5579182015b82811115620001b457825182559160200191906001019062000197565b5b509050620001c491906200022f565b5090565b8280548282559060005260206000209081019282156200021c579160200282015b828111156200021b5782518290805190602001906200020a92919062000137565b5091602001919060010190620001e9565b5b5090506200022b91906200024e565b5090565b5b808211156200024a57600081600090555060010162000230565b5090565b5b8082111562000272576000818162000268919062000276565b506001016200024f565b5090565b5080546200028490620004d9565b6000825580601f10620002985750620002b9565b601f016020900490600052602060002090810190620002b891906200022f565b5b50565b6000604051905090565b600080fd5b600080fd5b600080fd5b600080fd5b6000601f19601f8301169050919050565b7f4e487b7100000000000000000000000000000000000000000000000000000000600052604160045260246000fd5b6200032582620002da565b810181811067ffffffffffffffff82111715620003475762000346620002eb565b5b80604052505050565b60006200035c620002bc565b90506200036a82826200031a565b919050565b600067ffffffffffffffff8211156200038d576200038c620002eb565b5b6200039882620002da565b9050602081019050919050565b60005b83811015620003c5578082015181840152602081019050620003a8565b83811115620003d5576000848401525b50505050565b6000620003f2620003ec846200036f565b62000350565b905082815260208101848484011115620004115762000410620002d5565b5b6200041e848285620003a5565b509392505050565b600082601f8301126200043e576200043d620002d0565b5b815162000450848260208601620003db565b91505092915050565b600060208284031215620004725762000471620002c6565b5b600082015167ffffffffffffffff811115620004935762000492620002cb565b5b620004a18482850162000426565b91505092915050565b7f4e487b7100000000000000000000000000000000000000000000000000000000600052602260045260246000fd5b60006002820490506001821680620004f257607f821691505b60208210811415620005095762000508620004aa565b5b50919050565b61037d806200051f6000396000f3fe608060405234801561001057600080fd5b50600436106100365760003560e01c806306fdde031461003b578063634282af14610059575b600080fd5b610043610089565b604051610050919061025c565b60405180910390f35b610073600480360381019061006e91906102b9565b610117565b604051610080919061025c565b60405180910390f35b6000805461009690610315565b80601f01602080910402602001604051908101604052809291908181526020018280546100c290610315565b801561010f5780601f106100e45761010080835404028352916020019161010f565b820191906000526020600020905b8154815290600101906020018083116100f257829003601f168201915b505050505081565b6001818154811061012757600080fd5b90600052602060002001600091509050805461014290610315565b80601f016020809104026020016040519081016040528092919081815260200182805461016e90610315565b80156101bb5780601f10610190576101008083540402835291602001916101bb565b820191906000526020600020905b81548152906001019060200180831161019e57829003601f168201915b505050505081565b600081519050919050565b600082825260208201905092915050565b60005b838110156101fd5780820151818401526020810190506101e2565b8381111561020c576000848401525b50505050565b6000601f19601f8301169050919050565b600061022e826101c3565b61023881856101ce565b93506102488185602086016101df565b61025181610212565b840191505092915050565b600060208201905081810360008301526102768184610223565b905092915050565b600080fd5b6000819050919050565b61029681610283565b81146102a157600080fd5b50565b6000813590506102b38161028d565b92915050565b6000602082840312156102cf576102ce61027e565b5b60006102dd848285016102a4565b91505092915050565b7f4e487b7100000000000000000000000000000000000000000000000000000000600052602260045260246000fd5b6000600282049050600182168061032d57607f821691505b60208210811415610341576103406102e6565b5b5091905056fea2646970667358221220820954d6f6272102ce008bc2fffc230081d68583263e171bf3d364a948cacd9264736f6c634300080b0033",
  "linkReferences": {},
  "deployedLinkReferences": {}
}